:100000000C9480000C94A8000C94A8000C94A800F8
:100010000C94A8000C94A8000C94A8000C94A800C0
:100020000C94A8000C94A8000C94A8000C94A800B0
:100030000C94A8000C94A8000C94A8000C94A800A0
:100040000C94B2240C94A8000C947D270C94AF2738
:100050000C94A8000C94A8000C94A8000C94A80080
:100060000C94A8000C94A80059035D0320032303FB
:1000700026032A032E033103350338033B033E03D3
:100080004103450349034D035003530356196E19A9
:10009000ED19DC1AFC1A1C1B241BD11A00000008E5
:1000A000000201000003040700000000000000003F
:1000B00001020408102040800102040810200102FF
:1000C00004081020040404040404040402020202CC
:1000D00002020303030303030000000025002800BD
:1000E0002B0000000000240027002A003F015505D6
:1000F000B405880C48105A1051139124DF27722838
:1001000011241FBECFEFD8E0DEBFCDBF12E0A0E0CC
:10011000B1E0EAEBF3E502C005900D92A834B10717
:10012000D9F727E0A8E4B2E001C01D92A230B207DF
:10013000E1F710E0C0E0D1E004C02297FE010E9488
:10014000C729CC3ED107C9F70E9482280C94DB292D
:100150000C9400000F93CF93DF93CDB7DEB72C97AD
:100160000FB6F894DEBF0FBECDBF48EB5BE060E09A
:1001700070E081EE94E00E94DF2320E032EC41E069
:1001800050E062E375E081EE94E00E94F52361E0C7
:1001900081EE94E00E94B523882391F061E171E043
:1001A00080912305909124050E94CF286AE070E099
:1001B00080E090E00E942B2581EE94E00E94DE23F7
:1001C00041E060E081EE94E00E94732426E040E08C
:1001D00052EC61E070E082E395E00E941B2740E072
:1001E0006FE089E792E00E949F04882399F063E220
:1001F00071E082E395E00E94DC286CE371E082E329
:1002000095E00E94DC2864E670E080E090E00E94C7
:100210002B25E5CF67E571E082E395E00E94DC28BD
:1002200081E08093560286E0EBE0F1E0DE01179674
:1002300001900D928A95E1F7EBE5F2E0119282E0F0
:10024000E937F807D9F708E520E048EA60ECCE0185
:1002500001960E946628AE014F5F5F4FBE01695F45
:100260007F4F8AEE92E00E948A0F2C960FB6F89488
:10027000DEBF0FBECDBFDF91CF910F9108950F93D9
:1002800000E020E040E060E08AE892E00E9466281A
:1002900067E089E792E00E949C0488E492E00F9175
:1002A0000C94AF09CF93DF9300D000D000D0CDB72E
:1002B000DEB788E492E00E947708882309F445C0FD
:1002C00088E492E00E94E0091816190694F74EE1BE
:1002D00050E06BE572E088E492E00E947F299BE5A4
:1002E000C92E92E0D92E812C912C54018394E7E5FC
:1002F000F2E080E090E0D601A80FB91F2C91219385
:10030000019684309105B9F787E5E82E82E0F82E52
:1003100004E020E0B501A40189E792E00E943C05D9
:1003200065E070E080E090E00E942B258FEF881A56
:10033000980AA80AB80A85E0C80ED11C87E088167A
:100340009104A104B10499F6B4CF0EED20E048EA7F
:1003500060ECCE0101960E94662841EA5FE0BE0192
:100360006F5F7F4F88E492E00E94CC08A2CFCF93CA
:10037000CFB7F89480919302811127C0EEECF0E0A2
:100380008491EAEBF0E09491E82FF0E0EE0FFF1F8C
:10039000EE51FF4FA591B4918C91892321F461E036
:1003A0008AE00E94022661E08AE00E94C9258CB59D
:1003B00080618CBD8CB580648CBD61E08DE00E9455
:1003C000C92561E08BE00E94C925809193028F5F6F
:1003D00080939302CFBFCF91089520919202222360
:1003E00099F03FB7F89420919202213059F42DB33F
:1003F000209390024DB320919102209524232DBB90
:100400003FBF02C0309390028CBD9DBD08958EBD4C
:1004100000000DB407FEFDCF8EB5089580919202C5
:10042000882361F09FB7F894209192028091900206
:10043000213019F48DBB9FBF08958FBF0895CF93CE
:10044000DF93EC0180E590E00E94ED0160E0888997
:100450000E94022680EC0E94070261E088890E94C7
:1004600002260E940E026AE070E080E090E0DF91D8
:10047000CF910C942B251F93CF93DF93EC01162F74
:1004800080E590E00E94ED0160E088890E940226EC
:1004900083E00E940702812F0E94070280E00E94F1
:1004A0000702182F61E088890E9402260E940E022E
:1004B000812FDF91CF911F910895EF92FF921F93AB
:1004C000CF93DF931F92CDB7DEB77C01162F80E567
:1004D00090E049830E94ED0160E0F70180890E946D
:1004E000022682E00E940702812F0E9407024981B2
:1004F000842F0E94070261E0F70180890E94022692
:100500000F90DF91CF911F91FF90EF900C940E020E
:10051000CF92DF92EF92FF920F931F93CF93DF93CF
:1005200000D0CDB7DEB78C01E62EF22E80E590E04C
:1005300049835A830E94ED0160E0F80180890E949E
:10054000022682E00E9407028E2D0E940702498146
:10055000E42EC42E5A81D52E8C2D8E198F1530F491
:10056000F60181916F010E940702F6CF61E0F80168
:1005700080890E9402260F900F90DF91CF911F91EA
:100580000F91FF90EF90DF90CF900C940E02EF92BE
:10059000FF921F93CF93DF9300D0CDB7DEB77C01DE
:1005A000162F80E590E02A8349830E94ED0160E0E8
:1005B000F70180890E94022685E00E940702812FB0
:1005C0000E9407024981842F0E9407022A81822FFC
:1005D0000E94070261E0F70180890E9402260F90C5
:1005E0000F90DF91CF911F91FF90EF900C940E022E
:1005F0001F93CF93DF93EC01162F262F40EE6FE071
:100600000E94C7026FE0CE010E943B02982F907EAD
:1006100081E0911301C080E0DF91CF911F91089597
:100620000F931F93CF93DF93EC01462F50E0FA0115
:100630003197E231F105D8F5EC5CFF4F0C94C529F8
:1006400017E80FEF05C017E00AEB02C015E801EF4D
:100650004FE036C017E00EEB49E032C017E80FEF6D
:1006600002C017E80AEF47E02BC017E80FEF0BC0F6
:1006700017E00EEB08C017E00DEA05C017E80AEF17
:1006800002C016E800EF43E01BC017E80AEF41E0A4
:1006900017C015E801EF41E413C016E800EF05C0EC
:1006A00014E000EA02C012E800ED40E009C081E079
:1006B00016C017E80FEF4FE303C017E80FEF4FE145
:1006C0006AE2CE010E945D02402F69E2CE010E94E3
:1006D0005D02412F68E2CE010E945D0280E0DF9161
:1006E000CF911F910F9108951F93CF93DF93EC014A
:1006F00010E340E0612FCE010E945D0260E1610FD6
:1007000040E0CE010E945D0260E2610F40E0CE0158
:100710000E945D021F5F1E3361F740E060E6CE017C
:100720000E945D0240E060E7CE01DF91CF911F9112
:100730000C945D02FF920F931F93CF93DF93EC0114
:10074000F62E042F0E941F0260E8CE010E94F802DC
:10075000182F6AE070E080E090E011110CC00E9458
:100760002B256F2DCE010E941003882339F06AE0FB
:1007700070E080E090E00E942B2528C06AE070E0E5
:1007800080E090E00E942B25CE010E94740343E09C
:100790006BE2CE010E945D0224E044E660E6CE01F9
:1007A0000E94C70220E040E660E7CE010E94C70237
:1007B000602FCE010E94F802C82F8823C1F26AE0A0
:1007C00070E080E090E00E942B251C2F812FDF91AC
:1007D000CF911F910F91FF9008950F931F93CF9387
:1007E000DF9300D000D0CDB7DEB74130B1F40C8339
:1007F0001B83890122273327502F5C71402F4370C0
:1008000078E0579F400D112448604A8355E01695C3
:1008100007955A95E1F709830DC0A80123E0569585
:1008200047952A95E1F749830295000F007E0A83D8
:100830001C821B8224E0AE014F5F5F4F0E94880242
:100840000F900F900F900F90DF91CF911F910F910C
:100850000895FF920F931F93CF93DF93EC01F62E31
:100860008A01AC014A5F5F4F65E06F0D2D810E94E8
:1008700088020130110519F48D8180648D8364E054
:100880006F0D4D81CE010E945D0209811A812B817D
:100890003C8148816F2DCE010E94ED03DF91CF9105
:1008A0001F910F91FF900895615028E048E00C944B
:1008B000C7029F92AF92BF92CF92DF92EF92FF92C8
:1008C0000F931F93CF93DF9300D01F92CDB7DEB766
:1008D0006C017B0180E3898380E48A8380E58B83DC
:1008E000FB0110828E010F5F1F4F5E01F4E0AF0E1F
:1008F000B11CF80191908F01692DC6010E943B0245
:10090000982F987083FD04C09394F701908204C0DF
:100910000A151B0571F792E0892F0F900F900F9029
:10092000DF91CF911F910F91FF90EF90DF90CF90CB
:10093000BF90AF909F900895FC01608B0895EF9257
:10094000FF921F93CF93DF931F92CDB7DEB77C0149
:10095000162F61E0FC01808949830E94C92561E06E
:10096000F70180890E9402260E94B7014981612F08
:10097000C7010E949A0391E0811101C090E0892F84
:100980000F90DF91CF911F91FF90EF900895EF921C
:10099000FF920F931F93CF93DF93FC01208341833A
:1009A000528363837483093008F008E00583D7011C
:1009B00080E090E010E0801791073CF42D91EF016A
:1009C000C80FD91F2E830196F6CF80E0DF91CF911B
:1009D0001F910F91FF90EF900895CF92DF92EF92C9
:1009E000FF920F931F93CF93DF931F92CDB7DEB784
:1009F0008C016B01E12CF12CBE016F5F7F4FC801B0
:100A00000E9459049FEFE91AF90A823029F482E31F
:100A1000E816F10489F725C092E3E916F10409F11B
:100A2000A6016981C8010E9429046981C8010E9448
:100A30005404E12CF12C8FEFE81AF80A6981615017
:100A4000C8010E943B0283FF06C092E3E916F1044D
:100A500091F787E007C082E3E816F104D1F380E064
:100A600001C086E00F90DF91CF911F910F91FF9011
:100A7000EF90DF90CF900895EF92FF920F93CF9376
:100A8000DF93EC010E94C70460E070E0CE01DF91CB
:100A9000CF910F91FF90EF900C94ED04DC01ED915C
:100AA000FC91008CF18DE02D09940F9300E020E083
:100AB00040E060E084E992E00E9466280F9108958A
:100AC000FB014281538164817581FC014283538320
:100AD00064837583178216820895CF93FB018191F9
:100AE000811107C0FB0180E090E020E030E0CAE027
:100AF0001AC08E32A1F380538A3088F380E090E0F0
:100B000031C024303105D4F76E3289F48F3F91051E
:100B100009F0A4F7DA01A20FB31F12968C932F5F8E
:100B20003F4F80E090E061916111EBCF0EC0DC019E
:100B3000CA9FC001CB9F900D1124772767FD709548
:100B400060537109860F971FEECF8F3F910509F013
:100B5000ACF62430310594F6FA01E20FF31F8283DC
:100B600081E090E0CF9108950F9300E020E040E015
:100B700060E08AE992E00E9466280F910895AF92A2
:100B8000BF92CF92DF92EF92FF920F931F93CF937A
:100B9000DF9300D01F92CDB7DEB76C017B010E94BE
:100BA000FC24F601778366838601085F1F4FB60138
:100BB0006A5F7F4F42E050E0C8010E94971180E0D9
:100BC00091E00E94CC1B9A83898342E050E0BE01F1
:100BD0006F5F7F4FC8010E94971181E090E00E94F3
:100BE000CC1B9A83898342E050E0BE016F5F7F4F48
:100BF000C8010E9497111A82198242E050E0BE019A
:100C00006F5F7F4FC8010E94971142E050E0BE0124
:100C10006F5F7F4FC8010E94971142E050E0BE0114
:100C20006F5F7F4FC8010E9497116701F6018081B5
:100C3000882311F1F7016F018191811115C05601CF
:100C4000AE18BF081A141B0494F4AB8241E050E0C4
:100C5000BE016D5F7F4FC8010E949711A501B701CA
:100C6000C8010E94971103C08E3229F7E8CF7601A0
:100C7000FFEFEF1AFF0ADACF1B8241E050E0BE011E
:100C80006D5F7F4FC8010E94971181E090E00E9444
:100C9000CC1B9A83898342E050E0BE016F5F7F4F97
:100CA000C8010E94971181E090E00E94CC1B9A83BA
:100CB000898342E050E0BE016F5F7F4FC8010E9410
:100CC000971181E090E00F900F900F90DF91CF91FE
:100CD0001F910F91FF90EF90DF90CF90BF90AF905A
:100CE00008954F925F926F927F928F929F92AF92F0
:100CF000BF92CF92DF92EF92FF920F931F93CF9309
:100D0000DF93CDB7DEB763970FB6F894DEBF0FBEA3
:100D1000CDBF7C015B016A010E94FC242B013C01D8
:100D20008701085F1F4F4501A12CB12CC8010E940B
:100D3000B011181619069CF00E94FC24641975095C
:100D40008609970986169706A806B90608F48EC084
:100D500062E370E080E090E00E942B25E7CFF7018E
:100D600082809380A480B580B801CE0101960E9454
:100D70001D128B819C81AD81BE8188169906AA06C1
:100D8000BB0609F076C0C8010E94C610C59709F0DD
:100D900070C0C8010E94C0110C970CF46DC04CE0EB
:100DA00050E0BE016F5F7F4FC8010E944E058B81EE
:100DB0009C810E94CC1B9A8B898BF70146815781BD
:100DC00029813A814217530711F497FD06C0C801E3
:100DD0000E94F3108CEF9FEFD6C08F709270892B1A
:100DE00031F0C8010E94F3108BEF9FEFCCC08F81D0
:100DF00098850E94CC1B5C01009719F0E12CF12C26
:100E000023C0C8010E94F3108AEF9FEFBCC041E0ED
:100E100050E0BE01635F7F4FC8010E944E058D8583
:100E200081111AC08D858111F2CFC8010E947B10FB
:100E3000C8010E947B10C8010E947B10C8010E945B
:100E40007B10FFEFEF1AFF0A8D819E810E94CC1B61
:100E5000E816F906E0F213C08D859FEF980F9D8785
:100E6000882301F3C8010E947B10F6CF8FEF9FEF1C
:100E70008AC08EEF9FEF87C08DEF9FEF84C0E12C7B
:100E8000F12C41E050E0BE016D5E7F4FC8010E9431
:100E90004E058B89982F907C61F4882371F08B89A3
:100EA0009FEF980F9B8B882341F0C8010E947B1015
:100EB000F6CFC8010E947B101B8A8B898111E1CF7C
:100EC00042E050E0BE01615F7F4FC8010E944E05C5
:100ED00042E050E0BE01635F7F4FC8010E944E05B3
:100EE000C8010E947B10C8010E947B10C8010E94AB
:100EF0007B10C8010E947B1042E050E0BE016F5E93
:100F00007F4FC8010E944E058F8598890E94CC1B97
:100F10000197E9F48D859E850E94CC1B0197B9F459
:100F200089899A890E94CC1B049731F0C8010E94DC
:100F3000F31087EF9FEF27C0B6016E5F7F4F44E04D
:100F400050E0C8010E944E0581E090E01CC0812C59
:100F5000912C89899A890E94CC1B8816990638F4AD
:100F6000C8010E947B108FEF881A980AF2CFEFEF2A
:100F7000EE1AFE0AEA14FB0409F083CFC8010E94AE
:100F8000F31086EF9FEF63960FB6F894DEBF0FBEA7
:100F9000CDBFDF91CF911F910F91FF90EF90DF9028
:100FA000CF90BF90AF909F908F907F906F905F9009
:100FB0004F9008958F929F92AF92BF92CF92DF92FF
:100FC000EF92FF920F931F93CF93DF9300D000D047
:100FD00000D0CDB7DEB78C015B016A010E946D05C0
:100FE0004C01009709F05DC0F80142815381648192
:100FF000758180919C0290919D02A0919E02B0917A
:101000009F02481759076A077B0709F44EC00E94E0
:10101000FC247801F8E0EF0EF11C6F7077277C5FFD
:10102000C7010E949810813009F043C087E392E025
:101030009A838983F80182819381A481B5818B830E
:101040009C83AD83BE8345E350E0BE016F5F7F4F5D
:10105000C7010E94FF10892B19F4812C912C1DC00F
:10106000B501C8010E94BF05892BB9F3C7010E94D1
:101070002413892B91F323E0A22EB12CA60168E85A
:1010800073E1C8010E9471064C01F1E0AF1AB1088A
:1010900021F08F3F2FEF920789F3C7010E94D410F0
:1010A00008C088248394912C04C08EEF882E992444
:1010B0009A94C40126960FB6F894DEBF0FBECDBF3A
:1010C000DF91CF911F910F91FF90EF90DF90CF9024
:1010D000BF90AF909F908F900895DC01ED91FC91AF
:1010E000008CF18DE02D099591E089270895DC01B0
:1010F0001C96ED91FC911D97309741F081818823DA
:1011000011F081E00895808184FDFBCF80E0089597
:10111000FC01448555854115510551F0FB0124859D
:1011200035852115310521F081E04217530709F07B
:1011300080E00895CF93DF931F92CDB7DEB7DC0137
:10114000ED91FC910088F189E02D41E050E0BE0175
:101150006F5F7F4F099597FD03C0898190E002C0C2
:101160008FEF9FEF0F90DF91CF910895CF93DF9393
:10117000EC010E94DC0CEC85FD85309749F0808104
:1011800086FD02C081E005C08181882311F0FACF7D
:1011900080E0DF91CF910895CF92DF92EF92FF929E
:1011A0000F931F93CF93DF9300D000D0CDB7DEB75E
:1011B0007C018B016A01DC01ED91FC910288F389CD
:1011C000E02D0995F801228130E0322F222783811A
:1011D000282B3227232732273A832983248130E0A2
:1011E000322F22278581282B3227232732273C8341
:1011F0002B83C6010E94CC1BBC01CE0101960E942C
:10120000D9138C01009719F480E090E017C0D80141
:1012100059968C918F70C1F30E94DC0CD8015996BD
:101220008C9159978F70833091F75C968D919C913A
:101230005D97F7019587848781E090E00F900F908C
:101240000F900F90DF91CF911F910F91FF90EF9032
:10125000DF90CF9008950F931F93CF93DF931F924A
:10126000CDB7DEB78C01DC01ED91FC910688F789E2
:10127000E02D09958823A1F0D8011C96ED91FC91F1
:101280001D978181882361F021E030E0AE014F5F3E
:101290005F4F60E070E00E942220898190E002C0F0
:1012A0008FEF9FEF0F90DF91CF911F910F910895D6
:1012B000CF92DF92EF92FF920F931F93CF93DF9322
:1012C000CDB7DEB7A8970FB6F894DEBF0FBECDBF7F
:1012D0007C018B016A01CE0101960E945C28CE013F
:1012E00009960E943612CE0183960E945C286EE316
:1012F00073E0CE0101960E946005AE014D5D5F4F27
:10130000B801CE0101960E94DA0781309105C1F43F
:10131000D701ED91FC910484F585E02D87E392E0FF
:101320009E8F8D8F0DA11EA12FA138A50F8F18A301
:1013300029A33AA3A601BE01635E7F4FC7010995A9
:10134000A8960FB6F894DEBF0FBECDBFDF91CF9148
:101350001F910F91FF90EF90DF90CF900895FC01C7
:101360001382128248EE53E060E070E044835583BC
:101370006683778383E791E0918380831586148663
:101380000895EF92FF920F931F93CF93DF937C0109
:10139000C0E0D0E000E010E0F701EC0FFD1F81811C
:1013A0000E94681E080F191F2196C530D105A1F7AC
:1013B000C801DF91CF911F910F91FF90EF90089599
:1013C000CF93DF93EC01E881F9810688F789E02D5E
:1013D0000995882331F08C859D85DF91CF910C9400
:1013E000C10980E090E0DF91CF910895CF93DF9322
:1013F000E0EAF2E080E0908191110AC08061DF01B3
:101400008D9380E1ED0119928A95E9F7CF0106C02D
:101410008F5F7196843079F780E090E0DF91CF9113
:101420000895FC01319681E09191911102C08150A3
:1014300008958F5F8530C1F784E008959F92AF9241
:10144000BF92CF92DF92EF92FF920F931F93CF93B1
:10145000DF93EC016B017A018A015C0186E0A80E42
:10146000B11C0E94DC0C209709F446C0888180766C
:1014700009F042C0C5010E94110A982EFE01E80F32
:10148000F11D868181110CC080E092E00E94CF2284
:10149000FE01E90DF11D8683882319F31C861B8646
:1014A000A701401B510B4C0D5D1D6B857C85980180
:1014B000FE01E90DF11D86810E943420081B190BE5
:1014C0002B853C85280F391F3C872B87101611066A
:1014D0002CF484E0981629F29394D6CF0E94FC2431
:1014E000665F7F4F8F4F9F4F6D877E878F87988B6B
:1014F000C701801B910B02C080E090E0DF91CF918B
:101500001F910F91FF90EF90DF90CF90BF90AF9021
:101510009F900895CF93DF931F92CDB7DEB7698375
:1015200041E050E0BE016F5F7F4FFC0184859585EF
:101530000E941E0A0F90DF91CF910895FC018485CF
:1015400095850C941E0A0F931F93CF93DF938C0104
:10155000EC0189910E947123F801C8010496299138
:101560002193E817F907D9F7F8011482DF91CF9199
:101570001F910F9108959F92AF92BF92CF92DF92E9
:10158000EF92FF920F931F93CF93DF93EC015B01D8
:101590007A01E881F9810688F789E02D0995882389
:1015A00009F456C0EC85FD858181882309F453C078
:1015B00087012EE1922EA701401B510B4A0D5B1DA6
:1015C000EC85FD85980160E070E081810E94222019
:1015D0006C01EC85FD8581810E94681EEC85FD858E
:1015E000C816D90651F50C191D09CF0101960E94A4
:1015F000A30AAC85BD852C91822F90E08F70989EB8
:10160000F001999EF00D1124EC51FA4F818D84FF69
:1016100005C0822F807611F420682C93EC85FD851F
:10162000818181110FC0808186FF03C010821D86D9
:101630001C86C701801B910B10C0B60181810E94DE
:10164000932304C00115110509F0B5CFC70105C0EA
:101650008FEF9FEF02C080E090E0DF91CF911F916C
:101660000F91FF90EF90DF90CF90BF90AF909F9041
:1016700008951F93CF93DF93EC0115E088810E94BA
:10168000712319921150D1F7DF91CF911F910895D5
:10169000CF93DF93EC018C859D85009781F0FC0151
:1016A0002081222361F001960E94390BEC85FD8593
:1016B000808186FF02C0108202C0806280831D8606
:1016C0001C86DF91CF910C94DC0CCF93DF93EC015F
:1016D000E881F9810688F789E02D0995882339F09A
:1016E0008C859D850196DF91CF910C94390BDF910C
:1016F000CF910895DF92EF92FF920F931F93CF93B4
:10170000DF93E091E205F091E305C48DD58D20973C
:1017100081F48091DD0586FF45C00E94F609EC0149
:10172000009709F43FC0E091E205F091E305958F41
:10173000848F8091DD0581FF07C08091D505909150
:10174000D605892B09F043C0888187FF0EC08F77AB
:1017500088838091DD0582608093DD05E091E2055C
:10176000F091E305818D8F7E818F8091DD0584FF6F
:101770006DC0CE0106960E94390B8981882309F439
:1017800068C0E091E205F091E305848195819F8333
:101790008E83888180648883E091E205F091E3057F
:1017A000158E148EE12CF12CB7018091E0059091FB
:1017B000E1050E94D01BF092D605E092D505DF919D
:1017C000CF911F910F91FF90EF90DF900895888146
:1017D000807609F0B9CFE12CF12C8E010E0D1F1D82
:1017E000F801818181111EC08091D5059091D605A7
:1017F0000E94CF22F80181838823A1F00091D505B2
:101800001091D6052091E0053091E1052057364032
:1018100040914B0360E070E00E945821F4E0EF1229
:1018200093CF0CC02FEFE21AF20A35E0E316F10471
:10183000A1F6809148038E7F80934803E091E205F2
:10184000F091E305818D8061818F7ECF87FF03C09A
:1018500090CF1882A1CF80FF04C0CE0106960E94CF
:10186000A30A8091DD058C70D1F18E818823B9F1B6
:101870009F8191110CC0EB84FC84E114F10409F404
:1018800091CFA70160E070E00E94A62306C00E94ED
:10189000681E7C01009709F485CF8091E005909146
:1018A000E1058057964080934903F701E80FF11D49
:1018B000CF010E94CF2280934A03882309F474CF7A
:1018C0006091490370E0870120E030E04E810E9482
:1018D00058218091480382608093480365CF8881B6
:1018E00085FF60CF8E8181110BC01882E091E205E7
:1018F000F091E305158E148E80E18093DD0552CFC3
:10190000E091E205F091E305818D8061818F4ACFFE
:101910000F9300E020E040E060E084EE92E00E945F
:1019200066280F91089527E332E0FC01318320837C
:1019300040914003509141036091420370914303F1
:10194000428353836483758308958091480381FFA4
:1019500011C02091490330E040E756E060E070E0BC
:1019600080914A030E943420809148038D7F8093A8
:10197000480314C08091D5059091D6050E94CF22CE
:1019800080934A038823B1F02091D5053091D60584
:1019900040E756E060E070E00E94342080914A0306
:1019A0000E948A2080914A030E94712310924A0368
:1019B00081E0089580E00895CF92DF92EF92FF9248
:1019C0001F93CF93DF930E94BD22882309F4D5C0D3
:1019D00080914B03811104C00E947E1F80934B03B2
:1019E00080914B03882309F447C091E0909348030A
:1019F0000E94681E9093D6058093D505892B81F1AE
:101A000022E630E040E756E060E070E080914B0372
:101A10000E94222080917C0690917D06883091055D
:101A200091F480914B0380934A030E94831C81E0D0
:101A30000E94BB148091D5059091D605892B81F029
:101A40000E94611D0BC08830964051F40E94B71C63
:101A50008091D5059091D605892B11F00E94A50C97
:101A600080914B03882341F08091480380FF04C09C
:101A70000E947C1F10924B030E94FC246B017C018E
:101A80008091440390914503A0914603B091470390
:101A9000A7019601281B390B4A0B5B0BDA01C90120
:101AA00080959095A095B0958827B7FD8395992747
:101AB000AA27BB27182FC4EED5E0D093E305C09327
:101AC000E205112311F082E013C0209751F1EC8D53
:101AD000FD8D3097D1F085859685A785B089A701C2
:101AE0009601281B390B4A0B5B0B57FD1AC083E08C
:101AF0000E94BB148091D5059091D605892B89F061
:101B00000E94611D0E94A50C0CC04D855E856F85ED
:101B10007889D701C601841B950BA60BB70BB7FFBD
:101B2000E6CF6E9696E0CC35D90739F6112329F128
:101B3000AAEFCA0ED11CE11CF11CC0924403D09242
:101B40004503E0924603F0924703C6EDD6E0D093FA
:101B5000DF05C093DE0585E00E94BB148091D505AA
:101B60009091D605892B21F089859A850E940A13C8
:101B70002B96B7E0C230DB0751F7DF91CF911F9171
:101B8000FF90EF90DF90CF900895CF93DF93EC011B
:101B90000E94FC2466507F4F8F4F9F4F60934403F9
:101BA000709345038093460390934703CE010E94B0
:101BB000A921888180936A03898180936B038A813C
:101BC00080936C038B8180936D038C8180936E0373
:101BD0008D8180936F030E94AD13DF91CF910C94A0
:101BE0006E1CCF93DF93FC01DA01E901228130E022
:101BF000322F22278381282B848190E0982F8827F9
:101C00004581842B32272327322730936D0620937A
:101C10006C0698278927982790936F0680936E0605
:101C200012962C91129730E0322F222713968C9126
:101C30001397282B14968C91149790E0982F88274F
:101C400015964C91842B3227232732273093650633
:101C50002093640698278927982790936706809396
:101C600066062A8130E0322F22278B81282B8C8137
:101C700090E0982F88274D81842B32272327322705
:101C800030936906209368069827892798279093B0
:101C90006B0680936A06FB0182819381A481B581E2
:101CA0008093400390934103A0934203B093430376
:101CB000DF91CF910895AF92BF92CF92DF92EF92D2
:101CC000FF920F931F93CF93DF93CDB7DEB7689743
:101CD0000FB6F894DEBF0FBECDBFCB016A0159012C
:101CE0000E94C50D27E332E03A832983F701828100
:101CF0009381A481B5818B839C83AD83BE83388718
:101D00002F83F80182819381A481B58189879A8785
:101D1000AB87BC873E872D87F50182819381A481A3
:101D2000B5818F87988BA98BBA8B3C8B2B8BF60157
:101D300082819381A481B5818D8B9E8BAF8BB88F6F
:101D40009E012F5F3F4FAE01495F5F4FBE01635F52
:101D50007F4FCE0143960E94F10D68960FB6F8941E
:101D6000DEBF0FBECDBFDF91CF911F910F91FF90CE
:101D7000EF90DF90CF90BF90AF9008956F927F92D9
:101D80008F929F92AF92BF92CF92DF92EF92FF928B
:101D90000F931F93CF93DF93CDB7DEB76E970FB638
:101DA000F894DEBF0FBECDBF6C015B017A01490123
:101DB000380100E02FEF4FEF6FEFCE0149960E9400
:101DC000662827E332E03A8329838B8D9C8DAD8D85
:101DD000BE8D8B839C83AD83BE8338872F83F301B5
:101DE00082819381A481B58189879A87AB87BC87DB
:101DF0003E872D87F40182819381A481B5818F87ED
:101E0000988BA98BBA8B3C8B2B8BF701428153812A
:101E1000648175814D8B5E8B6F8B788FCE010196BF
:101E20007C018E01095F1F4F9E01235F3F4FAE0172
:101E30004D5E5F4FB501C6010E945B0E6E960FB6F8
:101E4000F894DEBF0FBECDBFDF91CF911F910F91F0
:101E5000FF90EF90DF90CF90BF90AF909F908F90CA
:101E60007F906F900895CF92DF92EF92FF920F9341
:101E70001F93CF93DF93CDB7DEB768970FB6F89473
:101E8000DEBF0FBECDBF6B017901DA0112964D9115
:101E90005D916D917C9115974D8B5E8B6F8B788FDB
:101EA000A7E3B2E0BA83A98321E0288F0D891E89B8
:101EB0002F89388D0B831C832D833E83B887AF8396
:101EC000F701028113812481358109871A872B87C5
:101ED0003C87BE87AD874F87588B698B7A8B8E0185
:101EE0000F5F1F4F9E01295F3F4FAE01435F5F4F62
:101EF000B6010E94BE0E68960FB6F894DEBF0FBE04
:101F0000CDBFDF91CF911F910F91FF90EF90DF90A8
:101F1000CF9008950F931F93CF93DF93CDB7DEB784
:101F200062970FB6F894DEBF0FBECDBFDB01FA019A
:101F300042815381648175814F87588B698B7A8B7D
:101F4000E7E3F2E0FA83E98321E02A8B0F85188921
:101F500029893A890B831C832D833E83F887EF837D
:101F600049875A876B877C879E012F5F3F4FAE0161
:101F7000495F5F4FBD010E94330F62960FB6F89420
:101F8000DEBF0FBECDBFDF91CF911F910F9108959E
:101F9000FB0141505109460F571FE417F50778F42C
:101FA000208130E0322F22276181260F311D820FE0
:101FB000931F8217930708F401963296EECFE41729
:101FC000F50751F4208130E0322F2227820F931F32
:101FD0008217930708F40196089544E150E06EE7F4
:101FE00076E080E090E00E94C80F009711F00C941A
:101FF000CC1B8FEF9FEF08950F931F93CF93DF9329
:10200000182FC0918106D0E064972091800630E0BF
:10201000322F2227C20FD31F48E050E06AE876E053
:10202000CE01810F911D0E94C80F113131F0009136
:102030009E06069506950C7301C008E010E0A80105
:1020400062E976E00E94C80F0C171D0750F49E014C
:10205000201B310BA8014E5D5F4F60914A030E9427
:102060007322009731F0DF91CF911F910F910C9463
:10207000CC1B8FEF9FEFDF91CF911F910F910895B0
:102080000C94ED0F86E00C94FC0F81E10C94FC0F96
:102090000F9300E020E040E060E08CE493E00E94D9
:1020A00066288EE393E00E945C288AE293E00F9119
:1020B0000C9436120F9300E020E040E060E082E5EF
:1020C00093E00E9466280F910895CF93DF931F92AB
:1020D000CDB7DEB76983DC01ED91FC910280F3811D
:1020E000E02D41E050E0BE016F5F7F4F09950F90FA
:1020F000DF91CF910895CF93DF931F92CDB7DEB7D5
:10210000DC01ED91FC91008CF18DE02D41E050E07F
:10211000BE016F5F7F4F0995181619061CF489815F
:1021200090E002C08FEF9FEF0F90DF91CF91089565
:10213000EF92FF920F931F93CF93DF93EC017B01FC
:102140008C859D85892B41F460E070E080E090E013
:102150000E945D149D878C870C851D8501151105D6
:1021600069F0C7010E94CC1BF80195838483EC853C
:10217000FD852E96D287C18781E001C080E0DF9186
:10218000CF911F910F91FF90EF900895DC011C9665
:10219000ED91FC911D97309721F0868197810C94E9
:1021A000CC1B80E090E00895CF93DF93EC01EC85A9
:1021B000FD853097A9F015821482128611861D863E
:1021C0001C8689890E94712388890E9471238A89CB
:1021D0000E9471232E9686E0FE0111928A95E9F7FE
:1021E000DF91CF910895CF93DF93EC010E94DC0C37
:1021F00089890E947123198ADF91CF910895CF9226
:10220000DF92EF92FF920F931F93CF93DF9300D053
:1022100000D000D0CDB7DEB77C016B01CA014D8381
:102220009E830E94DC0CD60112960D911D912D917A
:102230003C9115978D819E81012B022B032B99F1E7
:10224000009789F1F601228130E0322F2227438165
:10225000242B3227232732273A832983248130E015
:10226000322F22274581242B3227232732273C83F4
:102270002B83D7011C960D911C911D9701151105FB
:1022800091F10E94CC1BF80197838683D7011C969D
:10229000ED91FC911D9789819A81918380838B8137
:1022A0009C8193838283F70184859585892BC1F076
:1022B0008289811115C086E096E00E94CF22D70165
:1022C00052968C9352972AE230E01F963C932E93BD
:1022D0001E9721E090E0811101C020E0822F18C0FC
:1022E00080E090E015C00E94CC1BBC01CE0101969D
:1022F0000E945D14F70195878487009789F3970101
:10230000225F3F4FDC011A963C932E931997CBCF57
:1023100026960FB6F894DEBF0FBECDBFDF91CF91EA
:102320001F910F91FF90EF90DF90CF900895CF9382
:10233000DF93EC01FB019A018A89882361F06E85A5
:102340007F85AF010E9434202E853F85280F391FDD
:102350003F872E8702C080E090E0DF91CF91089503
:10236000CF93DF93EC010E94DC0C898981110E94DC
:1023700071238889898B188ADF91CF910C94681E0C
:10238000CF93DF93EC010E94DC0C8989DF91CF9120
:102390000C94681E0F931F93CF93DF931F92CDB7BA
:1023A000DEB78C010E94DC0CF8018189882371F072
:1023B00021E030E0AE014F5F5F4F60E070E00E94CF
:1023C0002220019719F4898190E002C08FEF9FEFDE
:1023D0000F90DF91CF911F910F910895EF92FF928F
:1023E0000F931F93CF93DF93EC018B017A010E942F
:1023F000DC0C89898823C1F09701A80160E070E0B6
:102400000E9422208C0189890E94681E08171907E2
:1024100029F489890E947123198A04C0B801898925
:102420000E949323C80102C080E090E0DF91CF9129
:102430001F910F91FF90EF9008950F93CF93DF932B
:10244000EC01DB011C96ED91FC911D97309739F062
:1024500022810381608141810E94662802C00E941E
:102460005C28CE01DF91CF910F910895FC0113827A
:10247000128248EE53E060E070E044835583668347
:10248000778383E991E091838083158614863E9655
:1024900086E0DF011D928A95E9F70895CF92DF92D9
:1024A000EF92FF920F931F93CF93DF93CDB7DEB7D9
:1024B000A8970FB6F894DEBF0FBECDBF7C018B018D
:1024C0006A01CE0101960E945C28CE0109960E9405
:1024D0003612CE0183960E945C286AEE72E0CE012D
:1024E0004D960E94930CBE01635E7F4FCE01019614
:1024F0000E946005AE014D5D5F4FB801CE010196AF
:102500000E94DA0781309105C1F4D701ED91FC9169
:102510000088F189E02D87E392E09E8F8D8F0DA1D9
:102520001EA12FA138A50F8F18A329A33AA3A60196
:10253000BE01635E7F4FC7010995A8960FB6F89458
:10254000DEBF0FBECDBFDF91CF911F910F91FF90E6
:10255000EF90DF90CF9008950F931F93CF93DF9369
:10256000E091DE05F091DF05C185D285209709F461
:102570004CC08091DD0581FF2DC08A8181112AC068
:1025800080919206909193069783868380918A0624
:1025900090918B069183808380918C0690918D061B
:1025A0009383828380919606909197060E94CC1B1C
:1025B00008970E94CF228A83882361F00E94681EB8
:1025C0008C012AE230E040914B0360E070E08A81A8
:1025D0000E9458218091DD0583FF17C08D818823DB
:1025E000A1F08C8180934A038AE280934903688139
:1025F00079816A5271098091E0059091E105DF913E
:10260000CF911F910F910C94D01BDF91CF911F910F
:102610000F910895CF93DF93EC010E94611D80918B
:10262000D5059091D605209148038A9721F4109200
:102630004A032D7F03C01D821C8222602093480321
:10264000DF91CF910C94A50CCF93DF93EC018C8597
:102650009D85892B19F480E090E020C08A89882329
:10266000D1F391E09B8B4E855F8560E070E00E9426
:10267000A6238C859D859093DF058093DE0585E0FC
:102680000E94BB148091D5059091D605892B19F332
:10269000CE010E960E940A1381E090E0DF91CF9167
:1026A00008950F9300E020E040E060E088E593E0CB
:1026B0000E9466280F910895FC015381560F509394
:1026C000DC05872F99274281480F4093DB05A181C4
:1026D000A093DA05E081E093D905242F30E0281794
:1026E000390748F481E08A0F8093DA05811103C02D
:1026F000EF5FE093D905852F90E07727861797073E
:1027000088F44F5F4093DB0541110CC08091DA05DE
:102710008F5F8093DA05811105C08091D9058F5FA5
:102720008093D90508952091E2053091E305BC011D
:10273000C90108960E945C13E091E205F091E3055F
:102740008091D90580878091DA0581878091DB05AA
:1027500082878091DC058387089580E0E82FF0E090
:10276000EE0FFF1FE45AF94F118210828F5F843001
:10277000A8F380E09EE1989FF0011124EC51FA4FFC
:10278000118E8F5F8430B8F380E094E09093630300
:102790008093620380E09BE0989FF0011124EA524D
:1027A000F94F158214828F5F8430B0F380936103F8
:1027B0000895CF9320916203309163032F5F3F4FC1
:1027C00021154DE7340710F020E030E1522F432F60
:1027D000E4EEF5E0C0E0C43059F0A18DAA2329F061
:1027E000A481B581A417B50749F3CF5F7E96F3CFD7
:1027F00030936303209362031092610320E0E0E0D2
:10280000F0E04EE12430E0F4429FD0011124AC51BD
:10281000BA4F59963C915997311104C020936103E6
:10282000FD0110C0373041F4309739F05A965C9171
:102830005A97328D351708F0DF012F5FFD01E2CF87
:10284000209361033097B1F122E0218F209164033E
:102850002487209165032587209166032687209190
:102860006703278720E032E0338B228B358B248B64
:1028700021E030E0318B208B138E228F23E0208FDC
:10288000168A20E1278B209162033091630332275F
:10289000232732273583248377836683DC012D91B8
:1028A0003C9111973183208312968D919C911397BF
:1028B00093838283CF01CF910895CF9320916203B8
:1028C000309163032F5F3F4F21154DE7340710F020
:1028D00020E030E1522F432FEAEDF6E0C0E0C430B3
:1028E00041F0A081B181CF5F3B96A417B507B9F73E
:1028F000E9CF309363032093620340E05BE0443010
:10290000A0F4A1E0A40F549FF0011124EA52F94F62
:1029100024813581232B39F440936103309741F4AE
:1029200080E090E026C04A2FEACF40936103F8CFC1
:1029300020916203309163033227232732273583A6
:10294000248377836683009729F410821182128290
:1029500013820CC0DC012D913C91119731832083AF
:1029600012968D919C9113979383828380E4808744
:10297000CF01CF9108951F93CF93DF93C091E205CC
:10298000D091E305843009F4EEC126EA36E03093B5
:10299000E1052093E0053093D8052093D7058330D7
:1029A00059F4898D8F70833009F0ECC68889998934
:1029B000892B09F0E7C67FC0823009F080C0809182
:1029C00067038F5F80936703811113C08091660353
:1029D0008F5F8093660381110CC0809165038F5FC8
:1029E00080936503811105C0809164038F5F80939C
:1029F00064031092D6051092D5051092D506109258
:102A0000D406298D822F8D7F853041F48A8D8F5F8A
:102A10008A8F883709F0B6C6198EB4C6222309F406
:102A2000B1C688899989892B09F441C08A8D9FEFA5
:102A3000980F9A8F8111A6C68B8D883031F09FEF49
:102A4000920F923048F4853039F4198E80E88093E3
:102A5000DD050E947A0B4CC5853038F493E0082ED2
:102A600001C0990F0A94EAF701C090E39A8F8F5F33
:102A70008B8F822F8F708330A1F048F4813009F45E
:102A800061C3823009F07EC610929F065EC3863015
:102A900009F4CDC4883009F4CAC4843009F072C680
:102AA000C6C484E08093DD050E947A0B53C52F7065
:102AB000233009F067C688E08093DD050EC58530B8
:102AC00019F5E091DE05F091DF0584819581892B70
:102AD00009F458C61092E3051092E2058AE996E0DF
:102AE0009093E1058093E0059093D8058093D705F6
:102AF0001092D5061092D4061092D6051092D505E4
:102B000088E08093DD052DC180917E06853409F033
:102B100039C68091800690E0982F88272091810601
:102B2000820F911D2091D5053091D60528173907C0
:102B300008F428C69093D6058093D5058091840625
:102B40008F7309F01FC68091850681111BC62091E5
:102B50006C0630916D062115310539F480916E06B1
:102B600090916F06892B09F442C0809187064091AD
:102B70008E0650918F06813151F54F3F1FEF51075F
:102B800039F48091900690919106019609F475C0F0
:102B9000809168069091690680959095822B932B81
:102BA00048175907A1F480916A0690916B068095A9
:102BB000909560916E0670916F06862B972B6091B1
:102BC0009006709191066817790709F456C042176C
:102BD000530709F0D7C52091900630919106809156
:102BE0006E0690916F062817390709F0CBC50E9431
:102BF0004010019609F0C6C580918706863009F419
:102C000015C18131D1F1813009F0BCC580919206A6
:102C1000883009F0B7C51092920680919406909181
:102C20009506873FCFEF9C0710F0099601C00896E4
:102C3000909395068093940680918A0690918B06D6
:102C400090938F0680938E0680918C0690918D06CE
:102C5000909391068093900680916C0690916D06FA
:102C600090938B0680938A0680916E0690916F06F2
:102C700090938D0680938C0689C58091D50590919F
:102C8000D6054C979093D6058093D5058AE996E0B2
:102C90009093E1058093E0058091980690919906C4
:102CA000892B99F4209194063091950640919206D3
:102CB0005091930660918A0670918B06A0918C06C4
:102CC000B0918D06E6EDF6E00BC00E94451001962E
:102CD00009F058C5E7CF84819581009731F43B9680
:102CE00087E0E230F807B8F349C528173907B9F784
:102CF00086819781009719F04817590781F78081DD
:102D00009181009729F4C281D381CD2B49F410C061
:102D10008F3FCFEF9C0721F4C281D381219641F0F0
:102D200068177907E1F682819381A817B907B9F688
:102D3000F093DF05E093DE051092E3051092E205C3
:102D400082E08093DD058AE996E09093E105809327
:102D5000E0059093D8058093D7051092D506109280
:102D6000D4060E94AC128091D4069091D5060097AB
:102D700009F408C59C01245E3F4F3093D60520938B
:102D8000D5053093800620938106E091DE05F09111
:102D9000DF0520852093860621E12093870608968B
:102DA00098278927982790939706809396061092E4
:102DB000990610929806848195819093930680934A
:102DC00092068681978190939506809394068091D0
:102DD0006C0690916D0690938B0680938A06809185
:102DE0006E0690916F0690938D0680938C0680817D
:102DF000918190938F0680938E0682819381909328
:102E000091068093900686EA96E09093E105809380
:102E1000E0050E94451080959095009711F48FEF82
:102E20009FEF909399068093980685C40E94421064
:102E3000019609F0A7C4809194069091950620917F
:102E400092063091930640918A0650918B066091CC
:102E50008C0670918D06EDEFF5E0C4EED5E01081A3
:102E60001123A9F0AC81BD818A179B0781F4AE8143
:102E7000BF812A173B0759F4A881B9814A175B071C
:102E800031F4AA81BB816A177B0709F475C16E967C
:102E90007E9616E0CC35D10711F720919F062F734F
:102EA0002230E1F490935F0380935E0340E044306E
:102EB00098F4E42FF0E0EE0FFF1FE45AF94F208161
:102EC00031814F5F8217930791F71092610320E0E1
:102ED000C0E0D0E03EE17EC04093610380919F0658
:102EE00082FD50C484E180939F0688E290E0909335
:102EF000D6058093D50580E580939E06809199063E
:102F000090919D06909399063091980690919C0619
:102F10009093980630939C062091970690919B067B
:102F20009093970620939B06909196069093610349
:102F300040919A064093960690939A068F5F8093ED
:102F40009D0681110FC081E0830F80939C06811143
:102F500009C081E0820F80939B06811103C09F5FAF
:102F600090939A06809192069091930690935F03B6
:102F700080935E03209194063091950630939306DA
:102F800020939206909395068093940680918A06EA
:102F900090918B0690938F0680938E0680918C067D
:102FA00090918D06909391068093900680916C0687
:102FB00090916D0690938B0680938A0680916E06A1
:102FC00090916F0690938D0680938C0699C347303D
:102FD00099F02F5F2430F0F4822F90E0389FF001B9
:102FE000399FF00D1124EC51FA4F418D4111EFCF73
:102FF00020936103EF0110C0209721F0528D4A8D7C
:10300000451738F7389FE001399FD00D1124CC5176
:10301000DA4FDFCF20936103209709F4B3C3D09335
:10302000E305C093E20583E08A8F888F1E8A84E0DF
:103030008F8B1B8E80919406909195069D838C8337
:1030400080919206909193069F838E8380918A0649
:1030500090918B069983888380918C0690918D0640
:103060009B838A8381E0898F809164038C87809120
:1030700065038D87809166038E87809167038F87B4
:1030800081E090E0998B888B809199068B87809165
:1030900098068A8780919706898780919606888707
:1030A00081E090E00E94931380919E06282F207F5C
:1030B00030E0213531050CF445C082958F7090E0E9
:1030C0000597880F991F880F991F3091600320E0A2
:1030D000E22FF0E0E817F9078CF5E059F94F36A92F
:1030E000311105C020936103109260032BC0313071
:1030F00011F42F5FEDCF3230E1F447A94430C9F429
:10310000209361033093600380AD90E0982F88276F
:1031100021AD822B90935F0380935E03813022E088
:10312000920710F080E092E09B8B8A8B9D8B8C8BBA
:1031300009C047A9442311F0240FCACF209361038B
:103140003093600380E180939F0680919F068260A8
:1031500080939F0682E08093A60694E09093A70652
:103160008093A8061092A9068CE290E09093D60571
:103170008093D50580E672C2D093E305C093E20543
:103180001092DD0530919F0632FF03C0198E80E258
:103190000EC220919E0622952F70220F220F20939F
:1031A00061038091D5059091D6054497821B9109C2
:1031B0009093D6058093D5051F70123021F4232FEC
:1031C0002F732231C9F0892B19F4832F8370A1F05A
:1031D000909196068885981337C2909197068985B5
:1031E000981332C2909198068A8598132DC29091B7
:1031F00099068B85981328C234FF4AC0688979895B
:103200006115710509F444C0CE010C960E945C134F
:1032100030919A068091D90538133AC020919B06C7
:103220008091DA05281334C090919C068091DB05CB
:1032300098132EC080919D064091DC05841328C010
:103240003C872D879E878F878B8D81111AC02E8991
:10325000888D9A8D891B922F969596959695891BA8
:10326000280F2E8B87FD81959F89392F36953695AE
:10327000931B980F9F8B822F869586958695890F35
:10328000888F81E08093DD05888D8A8F198A188A5E
:10329000498D842F8F7090E0FC013197E830F10563
:1032A00008F070C2EA5BFF4F0C94C5298091DD05E0
:1032B00080FF68C283E0898F80E48093DD05198AEE
:1032C000188A8091D5059091D605009709F401C11F
:1032D00022E42093DD050E949313FBC08091DD055D
:1032E00080FF70C080919F068F73823109F06AC0A1
:1032F00080919E06282F207F30E0213531050CF487
:1033000045C082958F7090E00597880F991F880FB0
:10331000991F3091600320E0E22FF0E0E817F907F1
:103320008CF5E059F94F36A9311105C0209361039E
:10333000109260032BC0313011F42F5FEDCF32308B
:10334000E1F447A94430C9F420936103309360034A
:1033500080AD90E0982F882721AD822B90935F035A
:1033600080935E03813062E0960710F080E092E087
:103370009B8B8A8B9D8B8C8B09C047A9442311F0B2
:10338000240FCACF209361033093600383E0898FB9
:103390008091960688878091970689878091980604
:1033A0008A87809199068B8781E090E00E94931331
:1033B00082E48093DD05198A188A1092D60510924E
:1033C000D50587C080E28093DD050E947A0BE091ED
:1033D000E205F091E305118E81CD80919F0680FF7B
:1033E00028C044FD26C088899989892B09F0CAC163
:1033F0008091D5059091D60501960E949313209156
:10340000DD05822F80618093DD058091D505909147
:10341000D605892B19F022612093DD050E947A0BD5
:1034200081E090E0998B888B88E0898F1B8E81E109
:103430000CC185FF1CC08091A40690E0982F8827BE
:103440002091A506822B2091E0053091E105280FFF
:10345000391F3093E1052093E0052091D505309187
:10346000D605281B390B3093D6052093D5058091BE
:10347000D5059091D605009749F044FD07C02091ED
:10348000DD0522602093DD050E9493138091A00644
:1034900090E0982F88272091A106820F911D90938C
:1034A0005F0380935E032C893D892817390710F04C
:1034B000892B21F430935F0320935E0380915E0398
:1034C00090915F039B8B8A8B8091DD05837009F45B
:1034D00059C11092D5061092D4060E947A0B8091A1
:1034E000DD0585FF07C01092D5061092D406198E0F
:1034F00084E1ABC084FF0AC01092D5061092D406B6
:1035000081E090E0998B888B84E08FCF2091D40666
:103510003091D50621153105E1F080FF02C0198AEE
:10352000188A88899989009781F48A899B898217EA
:10353000930720F49093D5068093D4068091D40607
:103540009091D506998B888B04C09093D506809373
:10355000D4061B8E8091D7059091D8059093E105F4
:103560008093E0058091D4069091D506892B59F07F
:1035700088899989009739F088969093D605809329
:10358000D50588E10BC08091DD0581FFFBC088E295
:1035900090E09093D6058093D50580E180939F06B7
:1035A0005CC08091DD0580FFEDC0198E80E18093C5
:1035B000DD050E947A0BE6C08091D5059091D60575
:1035C000009711F00E94931390919F068091DD0562
:1035D00090FF0BC080FF06C087E0898F1A8E198A82
:1035E000188A19C086E0898F16C080FF1EC085E04A
:1035F000898F198A188AC6C08091D5059091D60501
:10360000009711F00E94931380919F0680FF0DC0D8
:1036100087E0898F1A8E81E090E00E94931380E109
:103620008093DD050E947A0B0FC08091D5059091A3
:10363000D605892B49F4A6C08091DD0580FFA2C084
:1036400087E0898F1A8E9EC080E180939F0688E272
:1036500090E09093D6058093D50580E580939E06F3
:10366000888580939A06898580939B068A858093B6
:103670009C068B8580939D068C85809396068D8510
:10368000809397068E85809398068F858093990600
:1036900086E0809387068C819D819093930680932A
:1036A00092068E819F8190939506809394068091D7
:1036B0006C0690916D0690938B0680938A0680919C
:1036C0006E0690916F0690938D0680938C0688818C
:1036D000998190938F0680938E068A819B81909327
:1036E000910680939006898D84FF05C01092A106F3
:1036F0001092A00605C082E08093A0061092A10659
:1037000080E4809386068091D5059091D6059093AC
:103710008006809381061092A5061092A40610924E
:10372000A3061092A2060E94421080959095909355
:10373000A3068093A20685E480937E0610927F06FE
:103740001092850610928406809168039091690317
:103750000196909369038093680390938206809307
:10376000830610928906109288060E944010809568
:103770009095909389068093880608C0F093DF05A2
:10378000E093DE051092D6051092D5051092DD0566
:10379000DF91CF911F910895982789279827089541
:1037A0009C01AB017093D5066093D40616161706DC
:1037B00054F48091D7059091D8052817390719F04E
:1037C000B9010C94CB290895FF920F931F93CF93C7
:1037D000DF93DC01FB011092730360E07BE0683053
:1037E00010F5769FE0011124C858DC4F28813981FB
:1037F00021153105B1F08A819B81009791F04D919F
:103800005C9111974217530761F412962D913C91E8
:1038100013972817390729F460937303DE01149670
:103820004FC06F5FDCCF20E03BE0283090F4329F48
:10383000E0011124C858DC4F88819981892B39F423
:103840008A819B81892B19F42093730330C02F5FE9
:10385000ECCF20937303283051F500917103802F32
:1038600090E010E070E060E02BE0F22E683098F419
:10387000F69EE0011124C858DC4FCA85AC014C1BF0
:103880005109212F30E0241735071CF4762F102F13
:103890001C1B6F5FEBCF10937003709372037093D8
:1038A00073038BE0789FE0011124C858DC4F4D91E1
:1038B0005D916D917C91DE014D935D936D937D9350
:1038C00086E001900D928A95E1F7809171038A87D5
:1038D000DF91CF911F910F91FF9008951092730384
:1038E0009BE080917303883068F4989FF001112465
:1038F000E858FC4F10821182128213828F5F8093EE
:103900007303EFCF08958091D5059091D6050E975A
:103910009093D6058093D50580916C0690916D06A5
:1039200020918A0630918B06822793272091680682
:103930003091690682239323892BC1F480916E060E
:1039400090916F0620918C0630918D0682279327E7
:1039500020916A0630916B0682239323892B31F4E0
:1039600066E776E08AE896E00C94E41B089580917F
:10397000D5059091D6051092D6051092D5058A9757
:1039800008F408958091840690918506811521E0C0
:10399000920729F08115924009F476C0089520918C
:1039A00096063091970680916C0690916D062817C7
:1039B000390709F085C020919806309199068091C9
:1039C0006E0690916F062817390709F079C066E8EE
:1039D00076E08CE896E00E94E41B80E092E0909311
:1039E00085068093840686E0E6E8F6E0A0E9B6E086
:1039F00001900D928A95E1F786E0EAE6F3E0A6E809
:103A0000B6E001900D928A95E1F786E0EAE6F3E0F0
:103A1000A6E7B6E001900D928A95E1F786E0E0E92D
:103A2000F6E0A0E7B6E001900D928A95E1F780916B
:103A30008C0690918D0690939706809396068091C0
:103A40008E0690918F0690939906809398068091A8
:103A50006C0690916D0690938D0680938C068091F4
:103A60006E0690916F0690938F0680938E0688E085
:103A700096E090937D0680937C068AE290E0909396
:103A8000D6058093D5050895209196063091970626
:103A900080916C0690916D062817390789F4209162
:103AA00098063091990680916E0690916F062817BE
:103AB000390731F466E876E08CE896E00C94E41B74
:103AC000089520918E0630918F062F3F4FEF3407D7
:103AD00051F48091900690919106019621F486E030
:103AE000E3EBF1E0C6C080916C0690916D068227F1
:103AF0009327409168065091690684239523892B6A
:103B000091F4409190065091910680916E069091AB
:103B10006F068427952760916A0670916B0686234D
:103B20009723892B89F08091640690916506909384
:103B30007503809374038091660690916706909355
:103B400077038093760308C0309375032093740342
:103B5000509377034093760380917403909175039B
:103B6000209176033091770360E07BE0683090F439
:103B7000769FF0011124E858FC4F40815181841751
:103B8000950731F4428153812417350709F46DC03C
:103B90006F5FECCF60937303683009F068C046E054
:103BA00050E06FEF70E080E796E00E94D42926E0B5
:103BB000E0E9F6E0DF01422F1D924A95E9F7EAE6D7
:103BC000F3E0A6E7B6E0822F01900D928A95E1F727
:103BD000EAE6F3E0A6E8B6E0822F01900D928A951E
:103BE000E1F7809174039091750390939706809309
:103BF000960680917603909177039093990680932F
:103C0000980680916C0690916D0690938D06809336
:103C10008C0680916E0690916F0690938F0680932C
:103C20008E0680E091E090938506809384069093C1
:103C30007F0680937E0688E090E0909381068093D3
:103C400080062093820684E08093830688E096E0D5
:103C500090937D0680937C0686EA96E09093E1053A
:103C60008093E0058AE290E01EC06093730334966F
:103C700086E0A0E7B6E001900D928A95E1F786E034
:103C8000EAE6F3E0A6E7B6E001900D928A95E1F747
:103C900088E090E090937D0680937C068091D50526
:103CA0009091D6050E969093D6058093D5050895EC
:103CB00060E08AE00E94022660E088E00C94022620
:103CC00061E08AE00E94022661E088E00C9402260E
:103CD0008823A1F09091D503992381F08F3F29F497
:103CE0008091D2039091D303089595E0899FF001CC
:103CF0001124E852FC4F82819381089580E090E086
:103D00000895CF93DF9300D0CDB7DEB76A83898360
:103D10000E94581E6A81962F9F718981982B9EBDA3
:103D20000DB407FEFDCF1EBC0DB407FEFDCF67FD31
:103D300008C00E94601E8EB50F900F90DF91CF914A
:103D400008951EBC0DB407FEFDCFF3CFCF93DF93D4
:103D500000D01F92CDB7DEB74B836A8389830E9460
:103D6000581E6A816F718981682B6EBD4B810DB4BD
:103D700007FEFDCF4EBD0DB407FEFDCF0F900F9097
:103D80000F90DF91CF910C94601E0F931F93CF93F0
:103D9000DF938C01EB010E94581E8AE38EBD0DB4A7
:103DA00007FEFDCF0C0F1D1FC017D10739F01EBC39
:103DB0000DB407FEFDCF8EB58993F6CFDF91CF917D
:103DC0001F910F910C94601E0F931F93CF93DF935D
:103DD0008C01EB010E94581E8AE78EBD0DB407FED0
:103DE000FDCF0C0F1D1FC017D10731F089918EBD7B
:103DF0000DB407FEFDCFF7CFDF91CF911F910F914B
:103E00000C94601E1F93CF93DF93182F1076C12F51
:103E1000D0E020910A0130E0C217D30789F043E0D7
:103E20006FE180EA0E94A61EAE0185E05595479598
:103E30008A95E1F76FE180E80E94A61E10930A01BF
:103E4000DF91CF911F910895CF93DF931F92CDB74C
:103E5000DEB7682F69830E94021F698180E00F909E
:103E6000DF91CF910C94811E1F93CF93DF931F920C
:103E7000CDB7DEB7182F69830E94021F4981612FD9
:103E800080E40F90DF91CF911F910C94A61E1F9399
:103E9000CF93DF9300D0CDB7DEB7182F69837A8335
:103EA0000E94021F4981612F80E40E94A61E61E0EA
:103EB000610F7A81472F80E40F900F90DF91CF91AF
:103EC0001F910C94A61E6091D6037091D7036115C3
:103ED000710549F061507109611588E0780728F093
:103EE00060E070E002C06FEF77E060FF02C06150F9
:103EF00071098CE00C94471F0C94631FFF920F9381
:103F00001F93CF93DF9389E30E94241F9091D503E1
:103F1000992309F456C0882309F453C06091D6034D
:103F20007091D703EB012696C11588E0D80710F0F1
:103F3000CF5FD74080E00E94471F60E08AE30E9485
:103F4000811E90E09093D7038093D60360E08AE3CC
:103F50000E94811E2091D6033091D703382B3093D5
:103F6000D7032093D60360E08AE30E94811E082FC6
:103F700060E08AE30E94811E182F60E08AE30E94BD
:103F8000811EF82E40E46EE180E80E94A61EF7FE36
:103F900016C04091D6035091D7034115584078F48C
:103FA000D093D103C093D003202F30E0312B245085
:103FB00031093093D3032093D2038FEF03C00E94C3
:103FC000631F80E0DF91CF911F910F91FF900895C3
:103FD000EF92FF920F931F93CF93DF938B017A01A0
:103FE0008F3FC9F025E0829FE0011124C852DC4FC9
:103FF00002C0C0EDD3E068817981600F711F80E05D
:104000000E94471F8A819B81801B910BE816F9064D
:1040100090F4C70110C08091D0039091D103860F16
:10402000971F811528E0920720F3BC016F5F77404E
:10403000C0EDD3E0E4CFDF91CF911F910F91FF90BE
:10404000EF9008950F931F93CF93DF938A01A901F7
:104050000E94E81FEC01B8010E94C51ECE01DF914D
:10406000CF911F910F910895CF92DF92EF92FF921F
:104070000F931F93CF93DF938B016A01790195E032
:10408000899FE0011124C852DC4F68817981600F5B
:10409000711F82E00E94471F0A80DB81C02DC01B78
:1040A000D10BEC16FD0608F4E701B601CE010E9423
:1040B000E41ECE01DF91CF911F910F91FF90EF9001
:1040C000DF90CF900895BC0180E00E94471F0E94BE
:1040D000581E8AE38EBD0DB407FEFDCF1EBC0DB485
:1040E00007FEFDCF0E94601E8EB50895CF93C62FA8
:1040F000BC0182E00E94471F0E94581E8AE78EBDC5
:104100000DB407FEFDCFCEBD0DB407FEFDCFCF91A0
:104110000C94601EDF92EF92FF920F931F93CF9348
:10412000DF939091D503992309F464C095E0899FAA
:10413000F0011124E852FC4FC081D1812197028106
:1041400013810C0F1D1FCE010E946320D82E8823DF
:1041500021F060E0CE010E947620BE0184E00E9442
:10416000471FB80186E00E94471F9AE0E92EF12C14
:1041700040E86FE180E80E94A61E40E86FE180EA17
:104180000E94A61E4AE06CE180EA0E94A61E48E05A
:104190006FE180E80E94A61E04E610E08CE10E9418
:1041A000241F8A70B1F40115110551F448E06FE144
:1041B00080EA0E94A61E81E0E81AF108C9F61AC03A
:1041C000015011096AE070E080E090E00E942B2528
:1041D000E5CF012B59F3EF2869F0DD2059F06D2D63
:1041E000CE01DF91CF911F910F91FF90EF90DF9063
:1041F0000C947620DF91CF911F910F91FF90EF905B
:10420000DF900895CF92DF92EF92FF920F931F936A
:10421000CF93DF937C01EB014130510579F4CB0161
:104220000E946320682FC701DF91CF911F910F91EA
:10423000FF90EF90DF90CF900C9476206A01C60E2D
:10424000D71E86010150110980E10E94471FB70166
:1042500084E10E94471FC115D84030F4011588E061
:10426000180710F00F5F1740B80182E10E94471F46
:1042700040E16FE180EA0E94A61E40E26FE180E823
:104280000E94A61E6FE180E00E94811E85FF07C08C
:1042900061E070E080E090E00E942B25F3CFDF9199
:1042A000CF911F910F91FF90EF90DF90CF900895E5
:1042B0000F931F93CF93DF93EB01E5E0E89FD001CD
:1042C0001124A852BC4F4F3FC9F0E49FF0011124C4
:1042D000E852FC4F02C0E0EDF3E060817181620FB3
:1042E000731F8D919C91A8018C0F9D1F0E9402212C
:1042F000DF91CF911F910F910C94631FE091D00338
:10430000F091D103E20FF31FE11588E0F80718F3ED
:10431000BF016F5F7740E5CFCF93DF93EB01682F4D
:1043200084ED0E94341FBE0186ED0E94471FCFE03E
:10433000D0E08AEE0E94241F80FF08C061E070E098
:1043400080E090E00E942B25219799F7DF91CF9193
:1043500008950F931F93CF93DF93EC011092D10335
:104360001092D0031092D3031092D2030E94C02265
:1043700061E088E00E94C9250E94601E61E08BE038
:104380000E94C92561E08DE00E94C92560E08CE0B3
:104390000E94C92560E08BE00E94022660E08DE06B
:1043A0000E94022680E58CBD8DB581608DBD4FEFEA
:1043B00060E08FEF0E94A61E62E070E080E090E077
:1043C0000E942B2562E370E080E090E00E942B25A4
:1043D0001092D7031092D60300E110E06DE180E067
:1043E0000E94811E811104C00150110909F06FC0A3
:1043F00060E070E088E00E94471F60E070E08CE0C1
:104400000E94471F6FEF77E08AE00E94471F61EB31
:1044100088E30E94341F6FE370E388E20E94471F25
:1044200069EF77EF80E30E94471F6DE070E080EC5A
:104430000E94471F42E362EC80E80E94A61E62E1F0
:104440007CE086EC0E94471F62E184EC0E94341FEE
:104450006CED75E08AEC0E94471F688184EE0E9433
:10446000341F698185EE0E94341F6A8182EE0E94AA
:10447000341F6B8183EE0E94341F6C8180EE0E949A
:10448000341F6D8181EE0E94341F60E071E080E195
:104490000E948C218FE10E94021F40EC6BE180E8BA
:1044A0000E94A61E44E06FE180E80E94A61E66E717
:1044B00074E084E10E948C2182E70E94241F8F3FD8
:1044C00019F41092D5030AC08093D50307C06AE09F
:1044D00070E080E090E00E942B2580CFDF91CF91AB
:1044E0001F910F9108950F931F93CF93DF93EC01CA
:1044F000862FBA01A9010E94E81F8C010150110901
:104500000E94581E8AE38EBD0DB407FEFDCF20E049
:1045100030E020173107C0F41EBC0DB407FEFDCFFC
:104520008EB590E0982F88271EBC0DB407FEFDCFF6
:104530004EB5840F911DC80FD91FC817D90708F4AD
:1045400021962E5F3F4FE5CF2017310771F41EBC37
:104550000DB407FEFDCF8EB590E0982F8827C80FC9
:10456000D91FC817D90708F421960E94601ECE01F2
:10457000DF91CF911F910F9108958091D5030895F8
:10458000E8EDF3E089E091E0DF019C011D9221500C
:104590003040E1F781E098E0918380830895DF92D5
:1045A000EF92FF920F931F93CF93DF938C010097AD
:1045B00011F480E08EC04091D8035091D90341504E
:1045C000584E80E098E1E8EDF3E0E12CC0E0D0E067
:1045D00025E0D22EF480FF2041F0DF9CD001112491
:1045E000A852BC4F2D913C9101C09A01608171810C
:1045F000261B370B62817381261B370B201731076F
:1046000039F485E0E89EE0011124C852DC4F48C02F
:104610000217130748F42817390730F4DE9CE0012D
:104620001124C852DC4FC901F11007C02097C1F511
:10463000C8EDD3E085E0D82E1EC0DF9CF001112428
:10464000E852FC4FEF2CC6CFEA80FB80888199812D
:10465000E80EF91ED29EE0011124C852DC4F688199
:104660007981E616F70639F04A815B81C7010E941D
:104670000221F982E8822C812111E6CF8091D803B2
:104680009091D90328813981821B930B2A813B8128
:10469000821B930B8150984E8017910708F489CFA5
:1046A000EDEDF3E081E022813381232B29F0359673
:1046B0008F5F8533C1F77DCF2A813B814881598146
:1046C000240F351F31832083138302839C819483BD
:1046D0008C83DF91CF911F910F91FF90EF90DF902E
:1046E00008958823F9F0E8EDF3E025E0948198132C
:1046F00011C095E0899FD0011124A852BC4F149697
:104700008C911497848313961C921E921297149680
:104710001C920895992331F0299FF0011124E85249
:10472000FC4FE4CF089595E0899FF0011124E852F1
:10473000FC4F80819181860F971F918380838281B6
:104740009381861B970B93838283089595E0899FBD
:10475000F0011124E852FC4F80819181860F971F50
:10476000918380835383428308950F931F93CF9344
:10477000DF93EC01611116C00E94FC240A811B81A9
:104780002C813D81601B710B820B930B6233710591
:104790008105910538F463E070E080E090E00E94CC
:1047A0002B25EACF0E94FC246A837B838C839D8324
:1047B00081E0DF91CF911F910F9108950895FC0141
:1047C000EC5BFF4F1082118212821382FC01128275
:1047D000138214821582411551056105710521F07E
:1047E000CB01BA010C942B250895FB01BA01A90154
:1047F0008E5B9F4FDC01ED93FC9326E0CF010C9480
:104800001B278E5B9F4FDC018D919C91DC01ED910C
:10481000FC910680F781E02D099508958E5B9F4FEE
:10482000DC018D919C91DC01ED91FC910480F5817E
:10483000E02D099508951F93CF93DF93EC01162F78
:104840000E94FC246A837B838C839D83CE5BDF4F35
:104850006BEC71E0888199810E94CF284AE050E09A
:10486000612F888199810E944A2962ED71E08881D7
:1048700099810E94CF2862E370E080E090E0DF91B0
:10488000CF911F910C942B251F93CF93DF93EC01B5
:10489000162F8E89882311F1CE010E940E248111DA
:1048A00002C085E61CC0CE010E940E248823C9F3F5
:1048B000CE010E940124883689F048F4883569F0D9
:1048C000833689F7612FCE010E941B2407C08137F0
:1048D00029F0863741F786E702C01E8A83E6DF911A
:1048E000CF911F9108950F931F93CF93DF931F9242
:1048F000CDB7DEB78C01611108C0F801468B0F906F
:10490000DF91CF911F910F91089581E0F801868B7F
:1049100060E0C80149830E94442449818336C1F77D
:10492000ECCF1092E7041092E8041092E904109280
:10493000EA041092EB041092EC041092ED04109231
:10494000EE041092EF041092F0041092F104109211
:10495000F2041092F3041092F4041092F5041092F1
:10496000F60408951F920F920FB60F9211242F9301
:104970003F938F939F93AF93BF9380912A0590911C
:104980002B05A0912C05B0912D053091290523E030
:10499000230F2D3720F40196A11DB11D05C026E877
:1049A000230F0296A11DB11D2093290580932A058E
:1049B00090932B05A0932C05B0932D0580912E0587
:1049C00090912F05A0913005B09131050196A11D60
:1049D000B11D80932E0590932F05A0933005B093C1
:1049E0003105BF91AF919F918F913F912F910F9082
:1049F0000FBE0F901F9018952FB7F89460912A055D
:104A000070912B0580912C0590912D052FBF089555
:104A10003FB7F89480912E0590912F05A091300515
:104A2000B091310526B5A89B05C02F3F19F001961E
:104A3000A11DB11D3FBF6627782F892F9A2F620FC6
:104A4000711D811D911D42E0660F771F881F991F00
:104A50004A95D1F708958F929F92AF92BF92CF92CD
:104A6000DF92EF92FF926B017C010E9408254B01BF
:104A70005C01C114D104E104F104F1F00E94A22907
:104A80000E940825681979098A099B09683E7340C4
:104A90008105910570F321E0C21AD108E108F108FF
:104AA00088EE880E83E0981EA11CB11CC114D104AD
:104AB000E104F10429F7DDCFFF90EF90DF90CF9074
:104AC000BF90AF909F908F900895789484B5826046
:104AD00084BD84B5816084BD85B5826085BD85B5A2
:104AE000816085BDEEE6F0E0808181608083E1E851
:104AF000F0E0108280818260808380818160808389
:104B0000E0E8F0E0808181608083E1EBF0E080818B
:104B100084608083E0EBF0E0808181608083EAE75D
:104B2000F0E08081846080838081826080838081E6
:104B3000816080838081806880831092C1000895A5
:104B4000833081F028F4813099F08230A1F008950B
:104B50008730A9F08830B9F08430D1F4809180009A
:104B60008F7D03C0809180008F77809380000895AF
:104B700084B58F7702C084B58F7D84BD0895809100
:104B8000B0008F7703C08091B0008F7D8093B0001C
:104B90000895CF93DF9390E0FC01E055FF4F2491FF
:104BA000FC01EC53FF4F8491882349F190E0880F7A
:104BB000991FFC01EE51FF4FA591B49188529F4F70
:104BC000FC01C591D4919FB7611108C0F8948C91F4
:104BD000209582238C93888182230AC0623051F40D
:104BE000F8948C91322F309583238C938881822B7B
:104BF000888304C0F8948C91822B8C939FBFDF91A3
:104C0000CF9108950F931F93CF93DF931F92CDB74A
:104C1000DEB7282F30E0F901E456FF4F8491F90107
:104C2000E055FF4F1491F901EC53FF4F049100231D
:104C3000C9F0882321F069830E94A0256981E02FB3
:104C4000F0E0EE0FFF1FE852FF4FA591B4919FB720
:104C5000F8948C91611103C01095812301C0812BC0
:104C60008C939FBF0F90DF91CF911F910F9108956B
:104C7000FC01818D228D90E0805C9F4F821B910909
:104C80008F7399270895FC01918D828D981731F0CB
:104C9000828DE80FF11D858D90E008958FEF9FEFD5
:104CA0000895FC01918D828D981761F0828DDF014E
:104CB000A80FB11D5D968C91928D9F5F9F73928F0F
:104CC00090E008958FEF9FEF089585ED97E2892B8F
:104CD00049F080E090E0892B29F00E94D5278111CE
:104CE0000C9400000895FC01848DDF01A80FB11D14
:104CF000A35ABF4F2C91848D90E001968F73992712
:104D0000848FA689B7892C93A089B1898C918064FE
:104D10008C93938D848D981306C00288F389E02DBF
:104D200080818F7D80830895CF93DF93EC01888D00
:104D30008823C9F0EA89FB89808185FD05C0A8899F
:104D4000B9898C9186FD0FC00FB607FCF5CF808125
:104D500085FFF2CFA889B9898C9185FFEDCFCE016F
:104D60000E947326E7CFDF91CF910895CF92DF9213
:104D7000FF920F931F93CF93DF931F92CDB7DEB7B0
:104D80006C0181E0D60158968C9358975B969C9164
:104D90005B975C968C915C97981307C05096ED9149
:104DA000FC915197808185FD2EC0F601038D10E0A6
:104DB0000F5F1F4F0F731127F02EF601848DF8122D
:104DC00011C00FB607FCF9CFD6015096ED91FC91BA
:104DD0005197808185FFF1CFC60169830E947326B8
:104DE0006981EBCF838DE80FF11DE35AFF4F60839C
:104DF000D6015B960C935B975296ED91FC9153977D
:104E0000808180620CC0D6015696ED91FC91579737
:104E100060835096ED91FC915197808180648083EE
:104E200081E090E00F90DF91CF911F910F91FF9063
:104E3000DF90CF900895BF92CF92DF92EF92FF92D2
:104E4000CF93DF93EC016A017B01B22EE889F989E7
:104E500082E08083411581EE580761057105A1F05C
:104E600060E079E08DE390E0A70196010E94A3291C
:104E70002150310941095109569547953795279594
:104E8000211580E1380798F0E889F989108260E8F7
:104E900074E88EE190E0A70196010E94A3292150B9
:104EA0003109410951095695479537952795EC8564
:104EB000FD853083EE85FF852083188EEC89FD8982
:104EC000B082EA89FB89808180618083EA89FB89DD
:104ED000808188608083EA89FB8980818068808303
:104EE000EA89FB8980818F7D8083DF91CF91FF905C
:104EF000EF90DF90CF90BF9008951F920F920FB662
:104F00000F9211242F938F939F93EF93FF93E09130
:104F10004205F09143058081E0914805F0914905F3
:104F200082FD12C0908180914B058F5F8F7320911D
:104F30004C05821751F0E0914B05F0E0EE5CFA4F22
:104F4000958F80934B0501C08081FF91EF919F91D8
:104F50008F912F910F900FBE0F901F9018951F9259
:104F60000F920FB60F9211242F933F934F935F939D
:104F70006F937F938F939F93AF93BF93EF93FF9321
:104F800082E395E00E947326FF91EF91BF91AF916C
:104F90009F918F917F916F915F914F913F912F9151
:104FA0000F900FBE0F901F90189582E395E00E941E
:104FB000382621E0892B09F420E0822F08951092F1
:104FC00035051092340588EE93E0A0E0B0E08093C0
:104FD000360590933705A0933805B093390587E2DD
:104FE00092E0909333058093320585EC90E09093A6
:104FF0003F0580933E0584EC90E0909341058093BB
:10500000400580EC90E0909343058093420581EC4D
:1050100090E0909345058093440582EC90E0909356
:1050200047058093460586EC90E090934905809370
:10503000480510924B0510924C0510924D051092A8
:105040004E050895AF92BF92CF92DF92EF92FF92FA
:105050000F931F93CF93DF936C017B01C0E0D0E0EF
:1050600000E010E0F601EC0FFD1F4AE050E0628125
:10507000C7010E944A295C016EE2C7010E94D12843
:105080008A0D9B1D080F191F2196C330D10551F7BA
:105090004AE050E0F6016581C7010E944A29800F6D
:1050A000911FDF91CF911F910F91FF90EF90DF90B3
:1050B000CF90BF90AF90089527E332E0FC01318399
:1050C0002083128213821482158208950F93FC01AB
:1050D00087E392E091838083628343832483058303
:1050E0000F91089587E392E09093D0058093CF05C8
:1050F0001092D1051092D2051092D3051092D405CA
:10510000089508950E9465250E9481280E94AA00A2
:10511000C5E6D6E20E9452012097E1F30E9465267F
:10512000F9CFCF92DF92EF92FF920F931F93CF931D
:10513000DF937C016A01EB0100E010E00C151D0516
:1051400071F06991D701ED91FC910190F081E02D12
:10515000C7010995892B19F00F5F1F4FEFCFC801C9
:10516000DF91CF911F910F91FF90EF90DF90CF9043
:1051700008956115710581F0DB010D900020E9F7BC
:10518000AD0141505109461B570BDC01ED91FC91DB
:105190000280F381E02D099480E090E008950C9462
:1051A000B928DC01ED91FC910190F081E02D09948A
:1051B00068ED71E00C94B9280F931F93CF93DF93A0
:1051C000EC010E94B9288C01CE010E94D828800FE2
:1051D000911FDF91CF911F910F9108958F929F9210
:1051E000AF92BF92DF92EF92FF920F931F93CF93F4
:1051F000DF93CDB7DEB7A1970FB6F894DEBF0FBE31
:10520000CDBF7C01F42FD52ECB0119A2223008F49A
:105210002AE08E010F5D1F4F822E912CA12CB12C04
:105220006F2F7D2DA50194010E94A329F22FD32E6B
:10523000CA01015011096A3014F4E0E301C0E7E348
:10524000E60FD801EC93232B242B252B49F7B8012B
:10525000C7010E94B928A1960FB6F894DEBF0FBE11
:10526000CDBFDF91CF911F910F91FF90EF90DF9015
:10527000BF90AF909F908F9008952115310541F414
:10528000DC01ED91FC910190F081E02D642F0994F7
:105290000C94EE289A01462F50E060E070E00C94E8
:1052A0003D290F931F93CF93DF93EC010E94FC24C1
:1052B000688779878A879B87E881F9810680F781EB
:1052C000E02DCE01099597FF15C00E94FC240885AA
:1052D00019852A853B85601B710B820B930B0C8112
:1052E0001D812E813F81601771078207930720F38C
:1052F0008FEF9FEFDF91CF911F910F910895CF9284
:10530000DF92EF92FF920F931F93CF93DF937C0175
:105310006A01EB0100E010E00C151D0549F0C70122
:105320000E94512997FD04C089930F5F1F4FF4CF4E
:10533000C801DF91CF911F910F91FF90EF90DF9007
:10534000CF9008950895A1E21A2EAA1BBB1BFD0160
:105350000DC0AA1FBB1FEE1FFF1FA217B307E40754
:10536000F50720F0A21BB30BE40BF50B661F771FAC
:10537000881F991F1A9469F760957095809590958C
:105380009B01AC01BD01CF010895EE0FFF1F0590F9
:10539000F491E02D0994FB01DC0102C001900D9213
:1053A00041505040D8F70895DC0101C06D93415041
:0A53B0005040E0F70895F894FFCF95
:1053BA0000000207800001000000FF000102030450
:1053CA0005564D4450565F317C315F564D44505618
:1053DA000D0A0043414E2042555320536869656CBB
:1053EA006420696E6974206661696C0020496E697F
:1053FA00742043414E2042555320536869656C64BA
:10540A0020616761696E0043414E20425553205323
:10541A006869656C6420696E6974206F6B2100008D
:10542A000000008A0A9E0AE0099A082B09650BCC3B
:10543A00085809BB0A480B7708B60888086D08009F
:10544A0000000065109711C0117B10CA11F3109863
:10545A0010D410FF104E122413B011EE114E051D78
:10546A0012C610FFFFFFFFFFFF564D4450455F0075
:10547A003A323A005F564D44504500564D44504327
:10548A005F005F564D4450430D0A004572726F72B9
:10549A003A20417474656D707420746F207365745A
:1054AA00206120726561642D6F6E6C79207661725D
:1054BA006961626C65206F7220646174612074791D
:1054CA007065206E6F7420737570706F7274656486
:1054DA000D0A0000000000B62691283826512643FE
:1054EA002694260000000022286E616E00696E660E
:0854FA00006F7666002E000031
:107800000C94343C0C94513C0C94513C0C94513CE1
:107810000C94513C0C94513C0C94513C0C94513CB4
:107820000C94513C0C94513C0C94513C0C94513CA4
:107830000C94513C0C94513C0C94513C0C94513C94
:107840000C94513C0C94513C0C94513C0C94513C84
:107850000C94513C0C94513C0C94513C0C94513C74
:107860000C94513C0C94513C11241FBECFEFD8E036
:10787000DEBFCDBF11E0A0E0B1E0ECE9FFE702C060
:1078800005900D92A230B107D9F712E0A2E0B1E065
:1078900001C01D92AD30B107E1F70E942D3D0C945F
:1078A000CC3F0C94003C982F959595959595959582
:1078B000905D8F708A307CF0282F295A8091C0000B
:1078C00085FFFCCF9093C6008091C00085FFFCCF60
:1078D0002093C6000895282F205DF0CF982F809127
:1078E000C00085FFFCCF9093C6000895EF92FF92F1
:1078F0000F931F93EE24FF2487018091C00087FD22
:1079000017C00894E11CF11C011D111D81E4E8164B
:1079100082E4F8068FE0080780E0180770F3E09132
:107920000401F091050109958091C00087FFE9CF1E
:107930008091C6001F910F91FF90EF9008950E94D3
:10794000763C982F8091C00085FFFCCF9093C600B5
:1079500091362CF490330CF09053892F089597555D
:10796000892F08951F930E949F3C182F0E949F3CCF
:107970001295107F810F1F9108951F93182F882350
:1079800021F00E94763C1150E1F71F9108951F935A
:10799000182F0E94763C803249F0809103018F5F5E
:1079A000809303018530C1F01F9108958091C0003C
:1079B00085FFFCCF84E18093C6008091C00085FFE5
:1079C000FCCF1093C6008091C00085FFFCCF80E102
:1079D0008093C6001F910895E0910401F091050184
:1079E00009951F9108950E94763C803241F0809164
:1079F00003018F5F80930301853081F008958091AA
:107A0000C00085FFFCCF84E18093C6008091C00058
:107A100085FFFCCF80E18093C6000895E0910401CA
:107A2000F09105010995089540E951E08823A1F0FE
:107A30002D9A28EE33E0FA013197F1F721503040CA
:107A4000D1F72D9828EE33E0FA013197F1F7215064
:107A50003040D1F7815061F708953F924F925F9285
:107A60006F927F928F929F92AF92BF92CF92DF924E
:107A7000EF92FF920F931F93CF93DF93000080E16B
:107A80008093C4001092C50088E18093C10086E015
:107A90008093C2005098589A259A81E00E94143D24
:107AA00024E1F22E9EE1E92E85E9D82E0FE0C02ECA
:107AB00010E1B12EAA24A394B1E49B2EA6E58A2E50
:107AC000F2E57F2EE0E26E2E79E4572E63E5462E36
:107AD00050E5352E0E94763C8033B1F18133B9F107
:107AE000803409F46FC0813409F476C0823409F41B
:107AF00085C0853409F488C0803531F1823521F1A3
:107B0000813511F1853509F485C0863509F48DC0BC
:107B1000843609F496C0843709F403C1853709F423
:107B200072C1863709F466C0809103018F5F80932C
:107B30000301853079F6E0910401F0910501099582
:107B40000E94763C803351F60E94F33CC3CF0E94E2
:107B5000763C803249F78091C00085FFFCCFF092DF
:107B6000C6008091C00085FFFCCF9092C600809136
:107B7000C00085FFFCCF8092C6008091C00085FFC9
:107B8000FCCF7092C6008091C00085FFFCCF609250
:107B9000C6008091C00085FFFCCF5092C600809146
:107BA000C00085FFFCCF4092C6008091C00085FFD9
:107BB000FCCF3092C6008091C00085FFFCCFB09210
:107BC000C60088CF0E94763C863808F4BDCF0E945C
:107BD000763C0E94F33C7ECF0E94763C803809F4CC
:107BE0009CC0813809F40BC1823809F43CC1883942
:107BF00009F48FC080E00E94C73C6CCF84E10E94F2
:107C0000BD3C0E94F33C66CF85E00E94BD3C0E94D3
:107C1000F33C60CF0E94763C809306010E94763C44
:107C2000809307010E94F33C55CF0E94763C80333D
:107C300009F41DC183E00E94BD3C80E00E94C73C66
:107C400049CF0E94763C809309020E94763C809343
:107C5000080280910C028E7F80930C020E94763C79
:107C6000853409F415C18091080290910902892B8D
:107C700089F000E010E00E94763CF801E85FFE4FDA
:107C800080830F5F1F4F80910802909109020817AF
:107C9000190788F30E94763C803209F045CF809125
:107CA0000C0280FF01C16091060170910701660F0F
:107CB000771F7093070160930601A0910802B091AD
:107CC00009021097C9F0E8E0F1E09B01AD014E0F09
:107CD0005F1FF999FECF32BD21BD819180BDFA9A17
:107CE000F99A2F5F3F4FE417F50799F76A0F7B1F4B
:107CF00070930701609306018091C00085FFFCCF5F
:107D0000F092C6008091C00085FFFCCFB092C60003
:107D1000E1CE83E00E94C73CDDCE82E00E94C73CFA
:107D2000D9CE0E94763C809309020E94763C8093D3
:107D300008028091060190910701880F991F909386
:107D40000701809306010E94763C853409F4A6C0A1
:107D500080910C028E7F80930C020E94763C8032D0
:107D600009F0B8CE8091C00085FFFCCFF092C6002C
:107D7000609108027091090261157105B9F140E046
:107D800050E080910C02A82FA170B82FB27011C0E2
:107D9000BB2309F45CC0E0910601F0910701319624
:107DA000F0930701E09306014F5F5F4F46175707B7
:107DB000E8F4AA2369F3F999FECF209106013091E6
:107DC000070132BD21BDF89A90B58091C00085FFB2
:107DD000FCCF9093C6002F5F3F4F30930701209355
