:100000000C946D000C9495000C9495000C94950044
:100010000C9495000C9495000C9495000C9495000C
:100020000C9495000C9495000C9495000C949500FC
:100030000C9495000C9495000C9495000C949500EC
:100040000C94B5210C9495000C943B230C946D23D7
:100050000C9495000C9495000C9495000C949500CC
:100060000C9495000C94950056176E17ED17DC183C
:10007000FC181C192419D118000000080002010006
:100080000003040700000000000000000102040853
:1000900010204080010204081020010204081020F2
:1000A000040404040404040402020202020203031E
:1000B0000303030300000000250028002B000000BC
:1000C0000000240027002A00F3025503B403880A25
:1000D000480E5A0E51119D23302411241FBECFEF1C
:1000E000D8E0DEBFCDBF12E0A0E0B1E0EAE2FDE47F
:1000F00002C005900D92AE37B107D9F726E0AEE702
:10010000B2E001C01D92AD3BB207E1F710E0CAEDCD
:10011000D0E004C02297FE010E947F26C83CD10790
:10012000C9F70E9440240C9493260C9400008EBDC5
:1001300000000DB407FEFDCF8EB50895CF93DF9379
:10014000D82FC62F8AE00E9405236C2F8D2FDF91B8
:10015000CF910C9405230F931F93CF93DF93082F18
:10016000162FEA0160E0CA010E949E0082E00E9410
:100170009700802F0E949700812F0E94970061E0D6
:10018000CE010E949E0062E070E080E090E0DF918E
:10019000CF911F910F910C942E22CF93DF93D62FE6
:1001A000C42F47E050E0682F82E30E94AB0047E095
:1001B00050E06D2F81E30E94AB0047E050E06C2FD0
:1001C00085E3DF91CF910C94AB00CF93DF93D62FD3
:1001D000C42F47E050E0682F82E40E94AB0047E064
:1001E00050E06D2F81E40E94AB0047E050E06C2F9F
:1001F00085E4DF91CF910C94AB00CF93DF93D62FA2
:10020000C42F47E050E0682F82E50E94AB0047E032
:1002100050E06D2F81E50E94AB0047E050E06C2F6D
:1002200085E5DF91CF910C94AB0047E050E063E0AF
:100230008AE20E94AB0047E050E060E989E20E9458
:10024000AB0047E050E062E088E20E94AB008091A2
:100250009002882331F064E171E08DEE94E00C941B
:100260009A24089547E050E060E08BE20E94AB00E2
:1002700080919002882331F066E371E08DEE94E086
:100280000C949A2408951F93CF93DF93182FEB01BA
:1002900060E0CE010E949E0083E00E949700812FC3
:1002A0000E94970080E00E949700182F61E0CE0125
:1002B0000E949E0062E070E080E090E00E942E22AA
:1002C00047E050E060E08CE20E94AB00812FDF91BC
:1002D000CF911F910895CF92DF92EF92FF920F93EB
:1002E0001F93CF93DF93062FC3E0D0E047E050E0A9
:1002F000602F8FE00E94AB0067E070E08EE00E940C
:100300004301182F0E94FF216B017C0160E070E027
:10031000CB01101791F0693873418105910594F470
:1003200067E070E08EE00E944301182F0E94FF21D9
:100330006C197D098E099F09ECCF693873418105DD
:10034000910564F080919002882331F067E871E0B4
:100350008DEE94E00E949A24219741F680919002BC
:10036000882331F061EB71E08DEE94E00E948D24E2
:1003700080919002882339F04AE050E0612F8DEEA1
:1003800094E00E94082580919002882371F06AE72A
:1003900071E08DEE94E0DF91CF911F910F91FF906E
:1003A000EF90DF90CF900C949A24DF91CF911F9122
:1003B0000F91FF90EF90DF90CF9008951F93CF9310
:1003C000DF93182FEB0160E0CE010E949E00812F89
:1003D0000E94970061E0CE010E949E0062E070E002
:1003E00080E090E0DF91CF911F910C942E22CF936B
:1003F00067E070E080EC0E94DE0167E070E08EE074
:100400000E944301C82F87FFF8CF80919002882374
:1004100031F069EC71E08DEE94E00E948D248091C2
:100420009002882341F04AE050E06C2F8DEE94E07A
:10043000CF910C940F25CF9108950E94F7010E944F
:1004400015010E94320160E080E00C946B010F9373
:10045000CF93DF93CDB7DEB72C970FB6F894DEBFFE
:100460000FBECDBF81E08093900261E087E00E94E3
:10047000CC2261E087E00E94052386E0EEE0F1E017
:10048000DE01179601900D928A95E1F708E520E0CC
:1004900048EA60ECCE0101960E942424AE014F5F31
:1004A0005F4FBE01695F7F4F8DEE92E00E948A0D23
:1004B0006AEF70E080E090E00E942E220E941D0210
:1004C00048E062E080E40E94CD0048E062E080E421
:1004D0000E94E50048E062E080E40E94FD000E9486
:1004E000FF2160938C0270938D0280938E02909313
:1004F0008F0264E670E080E090E00E942E222C964D
:100500000FB6F894DEBF0FBECDBFDF91CF910F9134
:1005100008958130910539F08230910531F0892BB1
:1005200029F421E803C022E801C024E867E070E074
:10053000822F0C94DE010F931F93CF93DF939B01C7
:1005400060910A01662379F0F901E95FFD4F90811E
:10055000415051092417350759F510920A0121E03D
:1005600020930B0125C060910B01662379F0F901FE
:10057000E150FE4F90814150510924173507C1F4D5
:1005800010920B0121E020930C0112C060910C012C
:10059000662371F0F901E950FE4F908141505109F5
:1005A0002417350729F410920C0121E020930A0149
:1005B00047E050E0682F892F0E94AB000AE011E06D
:1005C000C0E0D0E0F80181918F01882319F0CE01BD
:1005D0000E9489022196C330D105A1F7DF91CF9106
:1005E0001F910F9108950F9300E020E040E060E03C
:1005F00081E992E00E9424248EE792E00F910C940E
:10060000AF07CF93DF93CDB7DEB7E6970FB6F89479
:10061000DEBF0FBECDBF6E0181E3C80ED11C8EE7D9
:1006200092E00E947706882351F18EE792E00E94C3
:10063000E007181619069CF740E350E0BE016F5F13
:100640007F4F8EE792E00E945425CE0101967C01F7
:1006500000E010E0F701E00FF11F48E050E0B801C2
:1006600080810E949B020F5F1F4F0830110591F798
:1006700098E0E90EF11CEC14FD0451F7D6CF0EED15
:1006800020E048EA60ECC6010E94242441EA5FE0D1
:10069000B6018EE792E00E94CC06C1CFDC01ED915D
:1006A000FC91008CF18DE02D09940F9300E020E087
:1006B00040E060E087E992E00E9424240F910895D1
:1006C000FB014281538164817581FC014283538324
:1006D00064837583178216820895CF93FB018191FD
:1006E000811107C0FB0180E090E020E030E0CAE02B
:1006F0001AC08E32A1F380538A3088F380E090E0F4
:1007000031C024303105D4F76E3289F48F3F910522
:1007100009F0A4F7DA01A20FB31F12968C932F5F92
:100720003F4F80E090E061916111EBCF0EC0DC01A2
:10073000CA9FC001CB9F900D1124772767FD70954C
:1007400060537109860F971FEECF8F3F910509F017
:10075000ACF62430310594F6FA01E20FF31F8283E0
:1007600081E090E0CF9108950F9300E020E040E019
:1007700060E08DE992E00E9424240F910895AF92E9
:10078000BF92CF92DF92EF92FF920F931F93CF937E
:10079000DF9300D01F92CDB7DEB76C017B010E94C2
:1007A000FF21F601778366838601085F1F4FB6013C
:1007B0006A5F7F4F42E050E0C8010E94970F80E0DF
:1007C00091E00E94CC199A83898342E050E0BE01F7
:1007D0006F5F7F4FC8010E94970F81E090E00E94F9
:1007E000CC199A83898342E050E0BE016F5F7F4F4E
:1007F000C8010E94970F1A82198242E050E0BE01A0
:100800006F5F7F4FC8010E94970F42E050E0BE012A
:100810006F5F7F4FC8010E94970F42E050E0BE011A
:100820006F5F7F4FC8010E94970F6701F6018081BB
:10083000882311F1F7016F018191811115C05601D3
:10084000AE18BF081A141B0494F4AB8241E050E0C8
:10085000BE016D5F7F4FC8010E94970FA501B701D0
:10086000C8010E94970F03C08E3229F7E8CF7601A6
:10087000FFEFEF1AFF0ADACF1B8241E050E0BE0122
:100880006D5F7F4FC8010E94970F81E090E00E944A
:10089000CC199A83898342E050E0BE016F5F7F4F9D
:1008A000C8010E94970F81E090E00E94CC199A83C2
:1008B000898342E050E0BE016F5F7F4FC8010E9414
:1008C000970F81E090E00F900F900F90DF91CF9104
:1008D0001F910F91FF90EF90DF90CF90BF90AF905E
:1008E00008954F925F926F927F928F929F92AF92F4
:1008F000BF92CF92DF92EF92FF920F931F93CF930D
:10090000DF93CDB7DEB763970FB6F894DEBF0FBEA7
:10091000CDBF7C015B016A010E94FF212B013C01DC
:100920008701085F1F4F4501A12CB12CC8010E940F
:10093000B00F181619069CF00E94FF216419750962
:100940008609970986169706A806B90608F48EC088
:1009500062E370E080E090E00E942E22E7CFF70192
:1009600082809380A480B580B801CE0101960E9458
:100970001D108B819C81AD81BE8188169906AA06C7
:10098000BB0609F076C0C8010E94C60EC59709F0E3
:1009900070C0C8010E94C00F0C970CF46DC04CE0F1
:1009A00050E0BE016F5F7F4FC8010E944E038B81F4
:1009B0009C810E94CC199A8B898BF70146815781C3
:1009C00029813A814217530711F497FD06C0C801E7
:1009D0000E94F30E8CEF9FEFD6C08F709270892B20
:1009E00031F0C8010E94F30E8BEF9FEFCCC08F81D6
:1009F00098850E94CC195C01009719F0E12CF12C2C
:100A000023C0C8010E94F30E8AEF9FEFBCC041E0F3
:100A100050E0BE01635F7F4FC8010E944E038D8589
:100A200081111AC08D858111F2CFC8010E947B0E01
:100A3000C8010E947B0EC8010E947B0EC8010E9463
:100A40007B0EFFEFEF1AFF0A8D819E810E94CC1969
:100A5000E816F906E0F213C08D859FEF980F9D8789
:100A6000882301F3C8010E947B0EF6CF8FEF9FEF22
:100A70008AC08EEF9FEF87C08DEF9FEF84C0E12C7F
:100A8000F12C41E050E0BE016D5E7F4FC8010E9435
:100A90004E038B89982F907C61F4882371F08B89A9
:100AA0009FEF980F9B8B882341F0C8010E947B0E1B
:100AB000F6CFC8010E947B0E1B8A8B898111E1CF82
:100AC00042E050E0BE01615F7F4FC8010E944E03CB
:100AD00042E050E0BE01635F7F4FC8010E944E03B9
:100AE000C8010E947B0EC8010E947B0EC8010E94B3
:100AF0007B0EC8010E947B0E42E050E0BE016F5E9B
:100B00007F4FC8010E944E038F8598890E94CC199F
:100B10000197E9F48D859E850E94CC190197B9F45F
:100B200089899A890E94CC19049731F0C8010E94E2
:100B3000F30E87EF9FEF27C0B6016E5F7F4F44E053
:100B400050E0C8010E944E0381E090E01CC0812C5F
:100B5000912C89899A890E94CC198816990638F4B3
:100B6000C8010E947B0E8FEF881A980AF2CFEFEF30
:100B7000EE1AFE0AEA14FB0409F083CFC8010E94B2
:100B8000F30E86EF9FEF63960FB6F894DEBF0FBEAD
:100B9000CDBFDF91CF911F910F91FF90EF90DF902C
:100BA000CF90BF90AF909F908F907F906F905F900D
:100BB0004F9008958F929F92AF92BF92CF92DF9203
:100BC000EF92FF920F931F93CF93DF9300D000D04B
:100BD00000D0CDB7DEB78C015B016A010E946D03C6
:100BE0004C01009709F05DC0F80142815381648196
:100BF000758180919F029091A002A091A102B09175
:100C0000A202481759076A077B0709F44EC00E94E1
:100C1000FF217801F8E0EF0EF11C6F7077277C5F01
:100C2000C7010E94980E813009F043C08DE592E023
:100C30009A838983F80182819381A481B5818B8312
:100C40009C83AD83BE8345E350E0BE016F5F7F4F61
:100C5000C7010E94FF0E892B19F4812C912C1DC015
:100C6000B501C8010E94BF03892BB9F3C7010E94D7
:100C70002411892B91F323E0A22EB12CA60168E860
:100C800073E1C8010E9471044C01F1E0AF1AB10890
:100C900021F08F3F2FEF920789F3C7010E94D40EF6
:100CA00008C088248394912C04C08EEF882E992448
:100CB0009A94C40126960FB6F894DEBF0FBECDBF3E
:100CC000DF91CF911F910F91FF90EF90DF90CF9028
:100CD000BF90AF909F908F900895DC01ED91FC91B3
:100CE000008CF18DE02D099591E089270895DC01B4
:100CF0001C96ED91FC911D97309741F081818823DE
:100D000011F081E00895808184FDFBCF80E008959B
:100D1000FC01448555854115510551F0FB012485A1
:100D200035852115310521F081E04217530709F07F
:100D300080E00895CF93DF931F92CDB7DEB7DC013B
:100D4000ED91FC910088F189E02D41E050E0BE0179
:100D50006F5F7F4F099597FD03C0898190E002C0C6
:100D60008FEF9FEF0F90DF91CF910895CF93DF9397
:100D7000EC010E94DC0AEC85FD85309749F080810A
:100D800086FD02C081E005C08181882311F0FACF81
:100D900080E0DF91CF910895CF92DF92EF92FF92A2
:100DA0000F931F93CF93DF9300D000D0CDB7DEB762
:100DB0007C018B016A01DC01ED91FC910288F389D1
:100DC000E02D0995F801228130E0322F222783811E
:100DD000282B3227232732273A832983248130E0A6
:100DE000322F22278581282B3227232732273C8345
:100DF0002B83C6010E94CC19BC01CE0101960E9432
:100E0000D9118C01009719F480E090E017C0D80147
:100E100059968C918F70C1F30E94DC0AD8015996C3
:100E20008C9159978F70833091F75C968D919C913E
:100E30005D97F7019587848781E090E00F900F9090
:100E40000F900F90DF91CF911F910F91FF90EF9036
:100E5000DF90CF9008950F931F93CF93DF931F924E
:100E6000CDB7DEB78C01DC01ED91FC910688F789E6
:100E7000E02D09958823A1F0D8011C96ED91FC91F5
:100E80001D978181882361F021E030E0AE014F5F42
:100E90005F4F60E070E00E94221E898190E002C0F6
:100EA0008FEF9FEF0F90DF91CF911F910F910895DA
:100EB000CF92DF92EF92FF920F931F93CF93DF9326
:100EC000CDB7DEB7A8970FB6F894DEBF0FBECDBF83
:100ED0007C018B016A01CE0101960E941A24CE0189
:100EE00009960E943610CE0183960E941A2461E46E
:100EF00073E0CE0101960E946003AE014D5D5F4F2D
:100F0000B801CE0101960E94DA0581309105C1F445
:100F1000D701ED91FC910484F585E02D8DE592E0FB
:100F20009E8F8D8F0DA11EA12FA138A50F8F18A305
:100F300029A33AA3A601BE01635E7F4FC7010995AD
:100F4000A8960FB6F894DEBF0FBECDBFDF91CF914C
:100F50001F910F91FF90EF90DF90CF900895FC01CB
:100F60001382128248EE53E060E070E044835583C0
:100F70006683778383E192E091838083158614866C
:100F80000895EF92FF920F931F93CF93DF937C010D
:100F9000C0E0D0E000E010E0F701EC0FFD1F818120
:100FA0000E94681C080F191F2196C530D105A1F7B2
:100FB000C801DF91CF911F910F91FF90EF9008959D
:100FC000CF93DF93EC01E881F9810688F789E02D62
:100FD0000995882331F08C859D85DF91CF910C9404
:100FE000C10780E090E0DF91CF910895CF93DF9328
:100FF000E3EAF2E080E0908191110AC08061DF01B4
:101000008D9380E1ED0119928A95E9F7CF0106C031
:101010008F5F7196843079F780E090E0DF91CF9117
:101020000895FC01319681E09191911102C08150A7
:1010300008958F5F8530C1F784E008959F92AF9245
:10104000BF92CF92DF92EF92FF920F931F93CF93B5
:10105000DF93EC016B017A018A015C0186E0A80E46
:10106000B11C0E94DC0A209709F446C08881807672
:1010700009F042C0C5010E941108982EFE01E80F38
:10108000F11D868181110CC080E092E00E94CF208A
:10109000FE01E90DF11D8683882319F31C861B864A
:1010A000A701401B510B4C0D5D1D6B857C85980184
:1010B000FE01E90DF11D86810E94341E081B190BEB
:1010C0002B853C85280F391F3C872B87101611066E
:1010D0002CF484E0981629F29394D6CF0E94FF2135
:1010E000665F7F4F8F4F9F4F6D877E878F87988B6F
:1010F000C701801B910B02C080E090E0DF91CF918F
:101100001F910F91FF90EF90DF90CF90BF90AF9025
:101110009F900895CF93DF931F92CDB7DEB7698379
:1011200041E050E0BE016F5F7F4FFC0184859585F3
:101130000E941E080F90DF91CF910895FC018485D5
:1011400095850C941E080F931F93CF93DF938C010A
:10115000EC0189910E947121F801C801049629913E
:101160002193E817F907D9F7F8011482DF91CF919D
:101170001F910F9108959F92AF92BF92CF92DF92ED
:10118000EF92FF920F931F93CF93DF93EC015B01DC
:101190007A01E881F9810688F789E02D099588238D
:1011A00009F456C0EC85FD858181882309F453C07C
:1011B00087012EE1922EA701401B510B4A0D5B1DAA
:1011C000EC85FD85980160E070E081810E94221E1F
:1011D0006C01EC85FD8581810E94681CEC85FD8594
:1011E000C816D90651F50C191D09CF0101960E94A8
:1011F000A308AC85BD852C91822F90E08F70989EBE
:10120000F001999EF00D1124E156FA4F818D84FF73
:1012100005C0822F807611F420682C93EC85FD8523
:10122000818181110FC0808186FF03C010821D86DD
:101230001C86C701801B910B10C0B60181810E94E2
:10124000932104C00115110509F0B5CFC70105C0F0
:101250008FEF9FEF02C080E090E0DF91CF911F9170
:101260000F91FF90EF90DF90CF90BF90AF909F9045
:1012700008951F93CF93DF93EC0115E088810E94BE
:10128000712119921150D1F7DF91CF911F910895DB
:10129000CF93DF93EC018C859D85009781F0FC0155
:1012A0002081222361F001960E943909EC85FD8599
:1012B000808186FF02C0108202C0806280831D860A
:1012C0001C86DF91CF910C94DC0ACF93DF93EC0165
:1012D000E881F9810688F789E02D0995882339F09E
:1012E0008C859D850196DF91CF910C943909DF9112
:1012F000CF910895DF92EF92FF920F931F93CF93B8
:10130000DF93E0919D05F0919E05C48DD58D2097CA
:1013100081F48091980586FF45C00E94F607EC0194
:10132000009709F43FC0E0919D05F0919E05958FCF
:10133000848F8091980581FF07C0809190059091DE
:101340009105892B09F043C0888187FF0EC08F77F4
:10135000888380919805826080939805E0919D052F
:10136000F0919E05818D8F7E818F8091980584FFFD
:101370006DC0CE0106960E9439098981882309F43F
:1013800068C0E0919D05F0919E05848195819F83C1
:101390008E83888180648883E0919D05F0919E050D
:1013A000158E148EE12CF12CB70180919B05909144
:1013B0009C050E94D019F0929105E0929005DF9172
:1013C000CF911F910F91FF90EF90DF90089588814A
:1013D000807609F0B9CFE12CF12C8E010E0D1F1D86
:1013E000F801818181111EC0809190059091910535
:1013F0000E94CF20F80181838823A1F000919005FD
:101400001091910520919B0530919C052B523640FF
:1014100040914E0360E070E00E94581FF4E0EF122C
:1014200093CF0CC02FEFE21AF20A35E0E316F10475
:10143000A1F680914B038E7F80934B03E0919D0535
:10144000F0919E05818D8061818F7ECF87FF03C0E3
:1014500090CF1882A1CF80FF04C0CE0106960E94D3
:10146000A308809198058C70D1F18E818823B9F101
:101470009F8191110CC0EB84FC84E114F10409F408
:1014800091CFA70160E070E00E94A62106C00E94F3
:10149000681C7C01009709F485CF80919B05909191
:1014A0009C058B52964080934C03F701E80FF11D89
:1014B000CF010E94CF2080934D03882309F474CF7D
:1014C00060914C0370E0870120E030E04E810E9483
:1014D000581F80914B03826080934B0365CF8881B6
:1014E00085FF60CF8E8181110BC01882E0919D0530
:1014F000F0919E05158E148E80E18093980552CF51
:10150000E0919D05F0919E05818D8061818F4ACF8C
:101510000F9300E020E040E060E087EE92E00E9460
:1015200024240F9108952DE532E0FC0131832083BE
:1015300040914303509144036091450370914603E9
:101540004283538364837583089580914B0381FFA5
:1015500011C020914C0330E04BE256E060E070E0B7
:1015600080914D030E94341E80914B038D7F8093A8
:101570004B0314C080919005909191050E94CF205B
:1015800080934D038823B1F020919005309191050F
:101590004BE256E060E070E00E94341E80914D0303
:1015A0000E948A1E80914D030E94712110924D036A
:1015B00081E0089580E00895CF92DF92EF92FF924C
:1015C0001F93CF93DF930E94BD20882309F4D5C0D9
:1015D00080914E03811104C00E947E1D80934E03B2
:1015E00080914E03882309F447C091E090934B0308
:1015F0000E94681C9093910580939005892B81F13E
:1016000022E630E04BE256E060E070E080914E036D
:101610000E94221E809137069091380688309105ED
:1016200091F480914E0380934D030E94831A81E0D0
:101630000E94BB128091900590919105892B81F0B9
:101640000E94611B0BC08830964051F40E94B71A6B
:101650008091900590919105892B11F00E94A50A27
:1016600080914E03882341F080914B0380FF04C09A
:101670000E947C1D10924E030E94FF216B017C0191
:101680008091470390914803A0914903B0914A0388
:10169000A7019601281B390B4A0B5B0BDA01C90124
:1016A00080959095A095B0958827B7FD839599274B
:1016B000AA27BB27182FCFE9D5E0D0939E05C0936A
:1016C0009D05112311F082E013C0209751F1EC8D9C
:1016D000FD8D3097D1F085859685A785B089A701C6
:1016E0009601281B390B4A0B5B0B57FD1AC083E090
:1016F0000E94BB128091900590919105892B89F0F1
:101700000E94611B0E94A50A0CC04D855E856F85F5
:101710007889D701C601841B950BA60BB70BB7FFC1
:10172000E6CF6E9696E0C731D90739F6112329F135
:10173000AAEFCA0ED11CE11CF11CC0924703D09243
:101740004803E0924903F0924A03C1E9D6E0D093FE
:101750009A05C093990585E00E94BB12809190057F
:1017600090919105892B21F089859A850E940A1113
:101770002B96B6E0CD3BDB0751F7DF91CF911F9160
:10178000FF90EF90DF90CF900895CF93DF93EC011F
:101790000E94FF2166507F4F8F4F9F4F60934703FA
:1017A000709348038093490390934A03CE010E94AB
:1017B000A91F888180936D03898180936E038A813C
:1017C00080936F038B81809370038C81809371036E
:1017D0008D81809372030E94AD11DF91CF910C94A3
:1017E0006E1ACF93DF93FC01DA01E901228130E028
:1017F000322F22278381282B848190E0982F8827FD
:101800004581842B322723273227309328062093C3
:10181000270698278927982790932A0680932906D8
:1018200012962C91129730E0322F222713968C912A
:101830001397282B14968C91149790E0982F882753
:1018400015964C91842B322723273227309320067C
:1018500020931F0698278927982790932206809324
:1018600021062A8130E0322F22278B81282B8C8180
:1018700090E0982F88274D81842B32272327322709
:10188000309324062093230698278927982790933E
:10189000260680932506FB0182819381A481B58170
:1018A0008093430390934403A0934503B09346036E
:1018B000DF91CF910895AF92BF92CF92DF92EF92D6
:1018C000FF920F931F93CF93DF93CDB7DEB7689747
:1018D0000FB6F894DEBF0FBECDBFCB016A01590130
:1018E0000E94C50B2DE532E03A832983F7018281FE
:1018F0009381A481B5818B839C83AD83BE8338871C
:101900002F83F80182819381A481B58189879A8789
:10191000AB87BC873E872D87F50182819381A481A7
:10192000B5818F87988BA98BBA8B3C8B2B8BF6015B
:1019300082819381A481B5818D8B9E8BAF8BB88F73
:101940009E012F5F3F4FAE01495F5F4FBE01635F56
:101950007F4FCE0143960E94F10B68960FB6F89424
:10196000DEBF0FBECDBFDF91CF911F910F91FF90D2
:10197000EF90DF90CF90BF90AF9008956F927F92DD
:101980008F929F92AF92BF92CF92DF92EF92FF928F
:101990000F931F93CF93DF93CDB7DEB76E970FB63C
:1019A000F894DEBF0FBECDBF6C015B017A01490127
:1019B000380100E02FEF4FEF6FEFCE0149960E9404
:1019C00024242DE532E03A8329838B8D9C8DAD8DC7
:1019D000BE8D8B839C83AD83BE8338872F83F301B9
:1019E00082819381A481B58189879A87AB87BC87DF
:1019F0003E872D87F40182819381A481B5818F87F1
:101A0000988BA98BBA8B3C8B2B8BF701428153812E
:101A1000648175814D8B5E8B6F8B788FCE010196C3
:101A20007C018E01095F1F4F9E01235F3F4FAE0176
:101A30004D5E5F4FB501C6010E945B0C6E960FB6FE
:101A4000F894DEBF0FBECDBFDF91CF911F910F91F4
:101A5000FF90EF90DF90CF90BF90AF909F908F90CE
:101A60007F906F900895CF92DF92EF92FF920F9345
:101A70001F93CF93DF93CDB7DEB768970FB6F89477
:101A8000DEBF0FBECDBF6B017901DA0112964D9119
:101A90005D916D917C9115974D8B5E8B6F8B788FDF
:101AA000ADE5B2E0BA83A98321E0288F0D891E89B4
:101AB0002F89388D0B831C832D833E83B887AF839A
:101AC000F701028113812481358109871A872B87C9
:101AD0003C87BE87AD874F87588B698B7A8B8E0189
:101AE0000F5F1F4F9E01295F3F4FAE01435F5F4F66
:101AF000B6010E94BE0C68960FB6F894DEBF0FBE0A
:101B0000CDBFDF91CF911F910F91FF90EF90DF90AC
:101B1000CF9008950F931F93CF93DF93CDB7DEB788
:101B200062970FB6F894DEBF0FBECDBFDB01FA019E
:101B300042815381648175814F87588B698B7A8B81
:101B4000EDE5F2E0FA83E98321E02A8B0F8518891D
:101B500029893A890B831C832D833E83F887EF8381
:101B600049875A876B877C879E012F5F3F4FAE0165
:101B7000495F5F4FBD010E94330D62960FB6F89426
:101B8000DEBF0FBECDBFDF91CF911F910F910895A2
:101B9000FB0141505109460F571FE417F50778F430
:101BA000208130E0322F22276181260F311D820FE4
:101BB000931F8217930708F401963296EECFE4172D
:101BC000F50751F4208130E0322F2227820F931F36
:101BD0008217930708F40196089544E150E069E301
:101BE00076E080E090E00E94C80D009711F00C9420
:101BF000CC198FEF9FEF08950F931F93CF93DF932F
:101C0000182FC0913C06D0E0649720913B0630E04D
:101C1000322F2227C20FD31F48E050E065E476E060
:101C2000CE01810F911D0E94C80D113131F000913C
:101C30005906069506950C7301C008E010E0A8014E
:101C40006DE476E00E94C80D0C171D0750F49E014C
:101C5000201B310BA8014E5D5F4F60914D030E9428
:101C60007320009731F0DF91CF911F910F910C9469
:101C7000CC198FEF9FEFDF91CF911F910F910895B6
:101C80000C94ED0D86E00C94FC0D81E10C94FC0DA0
:101C90000F9300E020E040E060E08FE493E00E94DA
:101CA000242481E493E00E941A248DE293E00F91B2
:101CB0000C9436100F9300E020E040E060E085E5F2
:101CC00093E00E9424240F910895CF93DF931F92F5
:101CD000CDB7DEB76983DC01ED91FC910280F38121
:101CE000E02D41E050E0BE016F5F7F4F09950F90FE
:101CF000DF91CF910895CF93DF931F92CDB7DEB7D9
:101D0000DC01ED91FC91008CF18DE02D41E050E083
:101D1000BE016F5F7F4F0995181619061CF4898163
:101D200090E002C08FEF9FEF0F90DF91CF91089569
:101D3000EF92FF920F931F93CF93DF93EC017B0100
:101D40008C859D85892B41F460E070E080E090E017
:101D50000E945D129D878C870C851D8501151105DC
:101D600069F0C7010E94CC19F80195838483EC8542
:101D7000FD852E96D287C18781E001C080E0DF918A
:101D8000CF911F910F91FF90EF900895DC011C9669
:101D9000ED91FC911D97309721F0868197810C94ED
:101DA000CC1980E090E00895CF93DF93EC01EC85AF
:101DB000FD853097A9F015821482128611861D8642
:101DC0001C8689890E94712188890E9471218A89D3
:101DD0000E9471212E9686E0FE0111928A95E9F704
:101DE000DF91CF910895CF93DF93EC010E94DC0A3D
:101DF00089890E947121198ADF91CF910895CF922C
:101E0000DF92EF92FF920F931F93CF93DF9300D057
:101E100000D000D0CDB7DEB77C016B01CA014D8385
:101E20009E830E94DC0AD60112960D911D912D9180
:101E30003C9115978D819E81012B022B032B99F1EB
:101E4000009789F1F601228130E0322F2227438169
:101E5000242B3227232732273A832983248130E019
:101E6000322F22274581242B3227232732273C83F8
:101E70002B83D7011C960D911C911D9701151105FF
:101E800091F10E94CC19F80197838683D7011C96A3
:101E9000ED91FC911D9789819A81918380838B813B
:101EA0009C8193838283F70184859585892BC1F07A
:101EB0008289811115C086E096E00E94CF20D7016B
:101EC00052968C9352972AE230E01F963C932E93C1
:101ED0001E9721E090E0811101C020E0822F18C000
:101EE00080E090E015C00E94CC19BC01CE010196A3
:101EF0000E945D12F70195878487009789F3970107
:101F0000225F3F4FDC011A963C932E931997CBCF5B
:101F100026960FB6F894DEBF0FBECDBFDF91CF91EE
:101F20001F910F91FF90EF90DF90CF900895CF9386
:101F3000DF93EC01FB019A018A89882361F06E85A9
:101F40007F85AF010E94341E2E853F85280F391FE3
:101F50003F872E8702C080E090E0DF91CF91089507
:101F6000CF93DF93EC010E94DC0A898981110E94E2
:101F700071218889898B188ADF91CF910C94681C14
:101F8000CF93DF93EC010E94DC0A8989DF91CF9126
:101F90000C94681C0F931F93CF93DF931F92CDB7C0
:101FA000DEB78C010E94DC0AF8018189882371F078
:101FB00021E030E0AE014F5F5F4F60E070E00E94D3
:101FC000221E019719F4898190E002C08FEF9FEFE4
:101FD0000F90DF91CF911F910F910895EF92FF9293
:101FE0000F931F93CF93DF93EC018B017A010E9433
:101FF000DC0A89898823C1F09701A80160E070E0BC
:102000000E94221E8C0189890E94681C08171907EA
:1020100029F489890E947121198A04C0B80189892B
:102020000E949321C80102C080E090E0DF91CF912F
:102030001F910F91FF90EF9008950F93CF93DF932F
:10204000EC01DB011C96ED91FC911D97309739F066
:1020500022810381608141810E94242402C00E9468
:102060001A24CE01DF91CF910F910895FC011382C4
:10207000128248EE53E060E070E04483558366834B
:10208000778383E392E091838083158614863E965E
:1020900086E0DF011D928A95E9F70895CF92DF92DD
:1020A000EF92FF920F931F93CF93DF93CDB7DEB7DD
:1020B000A8970FB6F894DEBF0FBECDBF7C018B0191
:1020C0006A01CE0101960E941A24CE0109960E944F
:1020D0003610CE0183960E941A246DEE72E0CE0176
:1020E0004D960E94930ABE01635E7F4FCE0101961A
:1020F0000E946003AE014D5D5F4FB801CE010196B5
:102100000E94DA0581309105C1F4D701ED91FC916F
:102110000088F189E02D8DE592E09E8F8D8F0DA1D5
:102120001EA12FA138A50F8F18A329A33AA3A6019A
:10213000BE01635E7F4FC7010995A8960FB6F8945C
:10214000DEBF0FBECDBFDF91CF911F910F91FF90EA
:10215000EF90DF90CF9008950F931F93CF93DF936D
:10216000E0919905F0919A05C185D285209709F4EF
:102170004CC08091980581FF2DC08A8181112AC0B1
:1021800080914D0690914E069783868380914506F7
:1021900090914606918380838091470690914806EE
:1021A0009383828380915106909152060E94CC19AC
:1021B00008970E94CF208A83882361F00E94681CC0
:1021C0008C012AE230E040914E0360E070E08A81A9
:1021D0000E94581F8091980583FF17C08D81882326
:1021E000A1F08C8180934D038AE280934C03688137
:1021F00079816A52710980919B0590919C05DF91CC
:10220000CF911F910F910C94D019DF91CF911F9115
:102210000F910895CF93DF93EC010E94611B809191
:1022200090059091910520914B038A9721F410928B
:102230004D032D7F03C01D821C82226020934B031F
:10224000DF91CF910C94A50ACF93DF93EC018C859D
:102250009D85892B19F480E090E020C08A8988232D
:10226000D1F391E09B8B4E855F8560E070E00E942A
:10227000A6218C859D8590939A058093990585E08C
:102280000E94BB128091900590919105892B19F3C2
:10229000CE010E960E940A1181E090E0DF91CF916D
:1022A00008950F9300E020E040E060E08BE593E0CC
:1022B0000E9424240F910895FC015381560F5093DE
:1022C0009705872F99274281480F40939605A18152
:1022D000A0939505E081E0939405242F30E0281722
:1022E000390748F481E08A0F80939505811103C076
:1022F000EF5FE0939405852F90E077278617970787
:1023000088F44F5F4093960541110CC0809195056C
:102310008F5F80939505811105C0809194058F5F33
:1023200080939405089520919D0530919E05BC01F0
:10233000C90108960E945C11E0919D05F0919E05EF
:10234000809194058087809195058187809196057D
:102350008287809197058387089580E0E82FF0E0D9
:10236000EE0FFF1FE95EF94F118210828F5F8430FC
:10237000A8F380E09EE1989FF0011124E156FA4F06
:10238000118E8F5F8430B8F380E094E09093660301
:102390008093650380E09BE0989FF0011124EF5645
:1023A000F94F158214828F5F8430B0F380936403F9
:1023B0000895CF9320916503309166032F5F3F4FBF
:1023C00021154DE7340710F020E030E1522F432F64
:1023D000EFE9F5E0C0E0C43059F0A18DAA2329F05F
:1023E000A481B581A417B50749F3CF5F7E96F3CFDB
:1023F00030936603209365031092640320E0E0E0CD
:10240000F0E04EE12430E0F4429FD0011124A156C7
:10241000BA4F59963C915997311104C020936403E7
:10242000FD0110C0373041F4309739F05A965C9175
:102430005A97328D351708F0DF012F5FFD01E2CF8B
:10244000209364033097B1F122E0218F209167033C
:10245000248720916803258720916903268720918E
:102460006A03278720E032E0338B228B358B248B65
:1024700021E030E0318B208B138E228F23E0208FE0
:10248000168A20E1278B209165033091660332275D
:10249000232732273583248377836683DC012D91BC
:1024A0003C9111973183208312968D919C911397C3
:1024B00093838283CF01CF910895CF9320916503B9
:1024C000309166032F5F3F4F21154DE7340710F021
:1024D00020E030E1522F432FE5E9F6E0C0E0C430C0
:1024E00041F0A081B181CF5F3B96A417B507B9F742
:1024F000E9CF309366032093650340E05BE044300E
:10250000A0F4A1E0A40F549FF0011124EF56F94F5D
:1025100024813581232B39F440936403309741F4AF
:1025200080E090E026C04A2FEACF40936403F8CFC2
:1025300020916503309166033227232732273583A4
:10254000248377836683009729F410821182128294
:1025500013820CC0DC012D913C91119731832083B3
:1025600012968D919C9113979383828380E4808748
:10257000CF01CF9108951F93CF93DF93C0919D0515
:10258000D0919E05843009F4EEC121E636E0309307
:102590009C0520939B0530939305209392058330EF
:1025A00059F4898D8F70833009F0ECC68889998938
:1025B000892B09F0E7C67FC0823009F080C0809186
:1025C0006A038F5F80936A03811113C0809169034E
:1025D0008F5F8093690381110CC0809168038F5FC6
:1025E00080936803811105C0809167038F5F80939A
:1025F0006703109291051092900510929006109228
:102600008F06298D822F8D7F853041F48A8D8F5FD3
:102610008A8F883709F0B6C6198EB4C6222309F40A
:10262000B1C688899989892B09F441C08A8D9FEFA9
:10263000980F9A8F8111A6C68B8D883031F09FEF4D
:10264000920F923048F4853039F4198E80E88093E7
:1026500098050E947A094CC5853038F493E0082E1D
:1026600001C0990F0A94EAF701C090E39A8F8F5F37
:102670008B8F822F8F708330A1F048F4813009F462
:1026800061C3823009F07EC610925A065EC386305E
:1026900009F4CDC4883009F4CAC4843009F072C684
:1026A000C6C484E0809398050E947A0953C52F70B0
:1026B000233009F067C688E0809398050EC5853001
:1026C00019F5E0919905F0919A0584819581892BFE
:1026D00009F458C610929E0510929D0585E596E076
:1026E00090939C0580939B0590939305809392050E
:1026F0001092900610928F061092910510929005FC
:1027000088E0809398052DC180913906853409F0C1
:1027100039C680913B0690E0982F882720913C068F
:10272000820F911D2091900530919105281739074E
:1027300008F428C6909391058093900580913F06F8
:102740008F7309F01FC68091400681111BC620912E
:102750002706309128062115310539F48091290684
:1027600090912A06892B09F442C08091420640913B
:10277000490650914A06813151F54F3F1FEF5107ED
:1027800039F480914B0690914C06019609F475C07E
:10279000809123069091240680959095822B932B0F
:1027A00048175907A1F48091250690912606809537
:1027B00090956091290670912A06862B972B60913F
:1027C0004B0670914C066817790709F456C04217FA
:1027D000530709F0D7C520914B0630914C068091E4
:1027E000290690912A062817390709F0CBC50E94BF
:1027F000400E019609F0C6C580914206863009F464
:1028000015C18131D1F1813009F0BCC580914D06EF
:10281000883009F0B7C510924D0680914F0690910F
:102820005006873FCFEF9C0710F0099601C008962D
:102830009093500680934F068091450690914606EE
:1028400090934A06809349068091470690914806E6
:1028500090934C0680934B06809127069091280612
:1028600090934606809345068091290690912A060A
:10287000909348068093470689C580919005909172
:1028800091054C97909391058093900585E596E08E
:1028900090939C0580939B058091530690915406DC
:1028A000892B99F420914F063091500640914D06A6
:1028B00050914E066091450670914606A0914706DC
:1028C000B0914806E1E9F6E00BC00E94450E019682
:1028D00009F058C5E7CF84819581009731F43B9684
:1028E00086E0ED3BF807B8F349C528173907B9F773
:1028F00086819781009719F04817590781F78081E1
:102900009181009729F4C281D381CD2B49F410C065
:102910008F3FCFEF9C0721F4C281D381219641F0F4
:1029200068177907E1F682819381A817B907B9F68C
:10293000F0939A05E093990510929E0510929D05DB
:1029400082E08093980585E596E090939C058093BE
:102950009B05909393058093920510929006109298
:102960008F060E94AC1080918F0690919006009780
:1029700009F408C59C01245E3F4F309391052093D4
:10298000900530933B0620933C06E0919905F09129
:102990009A0520852093410621E12093420608965E
:1029A0009827892798279093520680935106109272
:1029B0005406109253068481958190934E0680931D
:1029C0004D06868197819093500680934F068091A3
:1029D000270690912806909346068093450680919D
:1029E000290690912A069093480680934706808195
:1029F000918190934A0680934906828193819093B6
:102A00004C0680934B0681E696E090939C0580935C
:102A10009B050E94450E80959095009711F48FEFCD
:102A20009FEF909354068093530685C40E94420EF4
:102A3000019609F0A7C480914F069091500620910D
:102A40004D0630914E0640914506509146066091E4
:102A5000470670914806E8EBF5E0CFE9D5E0108134
:102A60001123A9F0AC81BD818A179B0781F4AE8147
:102A7000BF812A173B0759F4A881B9814A175B0720
:102A800031F4AA81BB816A177B0709F475C16E9680
:102A90007E9616E0C731D10711F720915A062F73A1
:102AA0002230E1F4909362038093610340E044306C
:102AB00098F4E42FF0E0EE0FFF1FE95EF94F20815C
:102AC00031814F5F8217930791F71092640320E0E2
:102AD000C0E0D0E03EE17EC04093640380915A069E
:102AE00082FD50C484E180935A0688E290E090937E
:102AF00091058093900580E5809359068091540656
:102B00009091580690935406309153069091570631
:102B10009093530630935706209152069091560693
:102B20009093520620935606909151069093640319
:102B30004091550640935106909355068F5F8093C0
:102B4000580681110FC081E0830F809357068111D1
:102B500009C081E0820F80935606811103C09F5FF8
:102B60009093550680914D0690914E069093620386
:102B70008093610320914F063091500630934E06AA
:102B800020934D069093500680934F068091450602
:102B90009091460690934A06809349068091470695
:102BA0009091480690934C0680934B06809127069F
:102BB00090912806909346068093450680912906B9
:102BC00090912A06909348068093470699C3473010
:102BD00099F02F5F2430F0F4822F90E0389FF001BD
:102BE000399FF00D1124E156FA4F418D4111EFCF7D
:102BF00020936403EF0110C0209721F0528D4A8D7D
:102C0000451738F7389FE001399FD00D1124C15680
:102C1000DA4FDFCF20936403209709F4B3C3D09336
:102C20009E05C0939D0583E08A8F888F1E8A84E06D
:102C30008F8B1B8E80914F06909150069D838C83C5
:102C400080914D0690914E069F838E83809145061C
:102C50009091460699838883809147069091480613
:102C60009B838A8381E0898F809167038C87809121
:102C700068038D87809169038E8780916A038F87AF
:102C800081E090E0998B888B809154068B878091AE
:102C900053068A87809152068987809151068887DA
:102CA00081E090E00E94931180915906282F207FA7
:102CB00030E0213531050CF445C082958F7090E0ED
:102CC0000597880F991F880F991F3091630320E0A3
:102CD000E22FF0E0E817F9078CF5E55DF94F36A92A
:102CE000311105C020936403109263032BC031306F
:102CF00011F42F5FEDCF3230E1F447A94430C9F42D
:102D0000209364033093630380AD90E0982F88276D
:102D100021AD822B9093620380936103813022E086
:102D2000920710F080E092E09B8B8A8B9D8B8C8BBE
:102D300009C047A9442311F0240FCACF209364038C
:102D40003093630380E180935A0680915A06826033
:102D500080935A0682E08093610694E09093620625
:102D600080936306109264068CE290E09093910544
:102D70008093900580E672C2D0939E05C0939D0516
:102D80001092980530915A0632FF03C0198E80E2E6
:102D90000EC22091590622952F70220F220F2093E8
:102DA000640380919005909191054497821B91094D
:102DB00090939105809390051F70123021F4232F7A
:102DC0002F732231C9F0892B19F4832F8370A1F05E
:102DD000909151068885981337C290915206898543
:102DE000981332C2909153068A8598132DC2909100
:102DF00054068B85981328C234FF4AC068897989A4
:102E00006115710509F444C0CE010C960E945C1155
:102E1000309155068091940538133AC0209156069A
:102E200080919505281334C090915706809196059E
:102E300098132EC08091580640919705841328C09E
:102E40003C872D879E878F878B8D81111AC02E8995
:102E5000888D9A8D891B922F969596959695891BAC
:102E6000280F2E8B87FD81959F89392F36953695B2
:102E7000931B980F9F8B822F869586958695890F39
:102E8000888F81E080939805888D8A8F198A188AA7
:102E9000498D842F8F7090E0FC013197E830F10567
:102EA00008F070C2EC5CFF4F0C947D268091980571
:102EB00080FF68C283E0898F80E480939805198A37
:102EC000188A8091900590919105009709F401C1AD
:102ED00022E4209398050E949311FBC080919805ED
:102EE00080FF70C080915A068F73823109F06AC0EA
:102EF00080915906282F207F30E0213531050CF4D0
:102F000045C082958F7090E00597880F991F880FB4
:102F1000991F3091630320E0E22FF0E0E817F907F2
:102F20008CF5E55DF94F36A9311105C02093640396
:102F3000109263032BC0313011F42F5FEDCF32308C
:102F4000E1F447A94430C9F4209364033093630348
:102F500080AD90E0982F882721AD822B909362035B
:102F600080936103813062E0960710F080E092E088
:102F70009B8B8A8B9D8B8C8B09C047A9442311F0B6
:102F8000240FCACF209364033093630383E0898FB7
:102F900080915106888780915206898780915306D7
:102FA0008A87809154068B8781E090E00E9493117C
:102FB00082E480939805198A188A109291051092DC
:102FC000900587C080E2809398050E947A09E0917D
:102FD0009D05F0919E05118E81CD80915A0680FF4E
:102FE00028C044FD26C088899989892B09F0CAC167
:102FF000809190059091910501960E9493112091E6
:103000009805822F8061809398058091900590911A
:103010009105892B19F02261209398050E947A0965
:1030200081E090E0998B888B88E0898F1B8E81E10D
:103030000CC185FF1CC080915F0690E0982F882707
:1030400020916006822B20919B0530919C05280FD2
:10305000391F30939C0520939B052091900530915A
:103060009105281B390B3093910520939005809191
:10307000900590919105009749F044FD07C020917B
:1030800098052260209398050E94931180915B0619
:1030900090E0982F882720915C06820F911D9093D5
:1030A0006203809361032C893D892817390710F04A
:1030B000892B21F430936203209361038091610393
:1030C000909162039B8B8A8B80919805837009F4A1
:1030D00059C11092900610928F060E947A09809131
:1030E000980585FF07C01092900610928F06198EE2
:1030F00084E1ABC084FF0AC01092900610928F0644
:1031000081E090E0998B888B84E08FCF20918F06AF
:103110003091900621153105E1F080FF02C0198A37
:10312000188A88899989009781F48A899B898217EE
:10313000930720F49093900680938F0680918F06DA
:1031400090919006998B888B04C090939006809301
:103150008F061B8E809192059091930590939C050C
:1031600080939B0580918F0690919006892B59F052
:1031700088899989009739F0889690939105809372
:10318000900588E10BC08091980581FFFBC088E223
:1031900090E0909391058093900580E180935A068A
:1031A0005CC08091980580FFEDC0198E80E180930E
:1031B00098050E947A09E6C080919005909191054A
:1031C000009711F00E94931190915A0680919805F2
:1031D00090FF0BC080FF06C087E0898F1A8E198A86
:1031E000188A19C086E0898F16C080FF1EC085E04E
:1031F000898F198A188AC6C080919005909191058F
:10320000009711F00E94931180915A0680FF0DC023
:1032100087E0898F1A8E81E090E00E94931180E10F
:10322000809398050E947A090FC080919005909133
:103230009105892B49F4A6C08091980580FFA2C012
:1032400087E0898F1A8E9EC080E180935A0688E2BB
:1032500090E0909391058093900580E580935906C6
:103260008885809355068985809356068A85809344
:1032700057068B85809358068C85809351068D85E3
:10328000809352068E85809353068F8580935406D3
:1032900086E0809342068C819D8190934E068093B8
:1032A0004D068E819F819093500680934F068091AA
:1032B00027069091280690934606809345068091B4
:1032C000290690912A0690934806809347068881A4
:1032D000998190934A06809349068A819B819093B5
:1032E0004C0680934B06898D84FF05C010925C06C6
:1032F00010925B0605C082E080935B0610925C062C
:1033000080E480934106809190059091910590937F
:103310003B0680933C061092600610925F06109266
:103320005E0610925D060E94420E809590959093E5
:103330005E0680935D0685E48093390610923A0616
:103340001092400610923F0680916B0390916C039F
:10335000019690936C0380936B0390933D0680934A
:103360003E0610924406109243060E94400E80953D
:103370009095909344068093430608C0F0939A0575
:10338000E09399051092910510929005109298057E
:10339000DF91CF911F910895982789279827089545
:1033A0009C01AB017093900660938F06161617066A
:1033B00054F480919205909193052817390719F0DC
:1033C000B9010C9483260895FF920F931F93CF9316
:1033D000DF93DC01FB011092760360E07BE0683054
:1033E00010F5769FE0011124C558DC4F2881398102
:1033F00021153105B1F08A819B81009791F04D91A3
:103400005C9111974217530761F412962D913C91EC
:1034100013972817390729F460937603DE01149671
:103420004FC06F5FDCCF20E03BE0283090F4329F4C
:10343000E0011124C558DC4F88819981892B39F42A
:103440008A819B81892B19F42093760330C02F5FEA
:10345000ECCF20937603283051F500917403802F30
:1034600090E010E070E060E02BE0F22E683098F41D
:10347000F69EE0011124C558DC4FCA85AC014C1BF7
:103480005109212F30E0241735071CF4762F102F17
:103490001C1B6F5FEBCF10937303709375037093D6
:1034A00076038BE0789FE0011124C558DC4F4D91E5
:1034B0005D916D917C91DE014D935D936D937D9354
:1034C00086E001900D928A95E1F7809174038A87D6
:1034D000DF91CF911F910F91FF9008951092760385
:1034E0009BE080917603883068F4989FF001112466
:1034F000E558FC4F10821182128213828F5F8093F5
:103500007603EFCF089580919005909191050E97E5
:1035100090939105809390058091270690912806BD
:103520002091450630914606822793272091230655
:103530003091240682239323892BC1F4809129069C
:1035400090912A06209147063091480682279327BA
:10355000209125063091260682239323892B31F46E
:1035600061E376E085E496E00C94E4190895809197
:1035700090059091910510929105109290058A976F
:1035800008F4089580913F0690914006811521E04E
:10359000920729F08115924009F476C00895209190
:1035A00051063091520680912706909128062817DF
:1035B000390709F085C02091530630915406809157
:1035C000290690912A062817390709F079C061E485
:1035D00076E087E496E00E94E41980E092E0909320
:1035E000400680933F0686E0E1E4F6E0ABE4B6E017
:1035F00001900D928A95E1F786E0EDE6F3E0A1E413
:10360000B6E001900D928A95E1F786E0EDE6F3E0F1
:10361000A1E3B6E001900D928A95E1F786E0EBE434
:10362000F6E0ABE2B6E001900D928A95E1F7809169
:1036300047069091480690935206809351068091D8
:10364000490690914A0690935406809353068091C0
:10365000270690912806909348068093470680910C
:10366000290690912A0690934A068093490688E09D
:1036700096E090933806809337068AE290E0909324
:10368000910580939005089520915106309152063E
:1036900080912706909128062817390789F42091F0
:1036A0005306309154068091290690912A062817D6
:1036B000390731F461E476E087E496E00C94E4198C
:1036C00008952091490630914A062F3F4FEF340765
:1036D00051F480914B0690914C06019621F486E0BE
:1036E000E3E5F2E0C6C08091270690912806822784
:1036F0009327409123065091240684239523892BF8
:1037000091F440914B0650914C068091290690917E
:103710002A06842795276091250670912606862320
:103720009723892B89F080911F0690912006909312
:1037300078038093770380912106909122069093DD
:103740007A038093790308C030937803209377033A
:1037500050937A0340937903809177039091780393
:103760002091790330917A0360E07BE0683090F437
:10377000769FF0011124E558FC4F40815181841758
:10378000950731F4428153812417350709F46DC040
:103790006F5FECCF60937603683009F068C046E055
:1037A00050E06FEF70E08BE296E00E948C2626E0FE
:1037B000EBE4F6E0DF01422F1D924A95E9F7EDE6D2
:1037C000F3E0A1E3B6E0822F01900D928A95E1F734
:1037D000EDE6F3E0A1E4B6E0822F01900D928A9528
:1037E000E1F780917703909178039093520680934C
:1037F00051068091790390917A03909354068093B7
:10380000530680912706909128069093480680934E
:1038100047068091290690912A0690934A06809344
:10382000490680E091E09093400680933F06909394
:103830003A068093390688E090E090933C068093A6
:103840003B0620933D0684E080933E0688E096E0A8
:10385000909338068093370681E696E090939C0516
:1038600080939B058AE290E01EC0609376033496B5
:1038700086E0ABE2B6E001900D928A95E1F786E032
:10388000EDE6F3E0A1E3B6E001900D928A95E1F751
:1038900088E090E0909338068093370680919005F9
:1038A000909191050E9690939105809390050895BF
:1038B00060E08AE00E94052360E088E00C94052324
:1038C00061E08AE00E94052361E088E00C94052312
:1038D0008823A1F09091D803992381F08F3F29F498
:1038E0008091D5039091D603089595E0899FF001CA
:1038F0001124E552FC4F82819381089580E090E08D
:103900000895CF93DF9300D0CDB7DEB76A83898364
:103910000E94581C6A81962F9F718981982B9EBDA9
:103920000DB407FEFDCF1EBC0DB407FEFDCF67FD35
:1039300008C00E94601C8EB50F900F90DF91CF9150
:1039400008951EBC0DB407FEFDCFF3CFCF93DF93D8
:1039500000D01F92CDB7DEB74B836A8389830E9464
:10396000581C6A816F718981682B6EBD4B810DB4C3
:1039700007FEFDCF4EBD0DB407FEFDCF0F900F909B
:103980000F90DF91CF910C94601C0F931F93CF93F6
:10399000DF938C01EB010E94581C8AE38EBD0DB4AD
:1039A00007FEFDCF0C0F1D1FC017D10739F01EBC3D
:1039B0000DB407FEFDCF8EB58993F6CFDF91CF9181
:1039C0001F910F910C94601C0F931F93CF93DF9363
:1039D0008C01EB010E94581C8AE78EBD0DB407FED6
:1039E000FDCF0C0F1D1FC017D10731F089918EBD7F
:1039F0000DB407FEFDCFF7CFDF91CF911F910F914F
:103A00000C94601C1F93CF93DF93182F1076C12F57
:103A1000D0E020910D0130E0C217D30789F043E0D8
:103A20006FE180EA0E94A61CAE0185E0559547959E
:103A30008A95E1F76FE180E80E94A61C10930D01C2
:103A4000DF91CF911F910895CF93DF931F92CDB750
:103A5000DEB7682F69830E94021D698180E00F90A4
:103A6000DF91CF910C94811C1F93CF93DF931F9212
:103A7000CDB7DEB7182F69830E94021D4981612FDF
:103A800080E40F90DF91CF911F910C94A61C1F939F
:103A9000CF93DF9300D0CDB7DEB7182F69837A8339
:103AA0000E94021D4981612F80E40E94A61C61E0F2
:103AB000610F7A81472F80E40F900F90DF91CF91B3
:103AC0001F910C94A61C6091D9037091DA036115C3
:103AD000710549F061507109611588E0780728F097
:103AE00060E070E002C06FEF77E060FF02C06150FD
:103AF00071098CE00C94471D0C94631DFF920F9389
:103B00001F93CF93DF9389E30E94241D9091D803E4
:103B1000992309F456C0882309F453C06091D9034E
:103B20007091DA03EB012696C11588E0D80710F0F2
:103B3000CF5FD74080E00E94471D60E08AE30E948B
:103B4000811C90E09093DA038093D90360E08AE3CC
:103B50000E94811C2091D9033091DA03382B3093D5
:103B6000DA032093D90360E08AE30E94811C082FC6
:103B700060E08AE30E94811C182F60E08AE30E94C3
:103B8000811CF82E40E46EE180E80E94A61CF7FE3E
:103B900016C04091D9035091DA034115584078F48A
:103BA000D093D403C093D303202F30E0312B245083
:103BB00031093093D6032093D5038FEF03C00E94C1
:103BC000631D80E0DF91CF911F910F91FF900895C9
:103BD000EF92FF920F931F93CF93DF938B017A01A4
:103BE0008F3FC9F025E0829FE0011124C552DC4FD0
:103BF00002C0C3EDD3E068817981600F711F80E05E
:103C00000E94471D8A819B81801B910BE816F90653
:103C100090F4C70110C08091D3039091D403860F14
:103C2000971F811528E0920720F3BC016F5F774052
:103C3000C3EDD3E0E4CFDF91CF911F910F91FF90BF
:103C4000EF9008950F931F93CF93DF938A01A901FB
:103C50000E94E81DEC01B8010E94C51CCE01DF9155
:103C6000CF911F910F910895CF92DF92EF92FF9223
:103C70000F931F93CF93DF938B016A01790195E036
:103C8000899FE0011124C552DC4F68817981600F62
:103C9000711F82E00E94471D0A80DB81C02DC01B7E
:103CA000D10BEC16FD0608F4E701B601CE010E9427
:103CB000E41CCE01DF91CF911F910F91FF90EF9007
:103CC000DF90CF900895BC0180E00E94471D0E94C4
:103CD000581C8AE38EBD0DB407FEFDCF1EBC0DB48B
:103CE00007FEFDCF0E94601C8EB50895CF93C62FAE
:103CF000BC0182E00E94471D0E94581C8AE78EBDCD
:103D00000DB407FEFDCFCEBD0DB407FEFDCFCF91A4
:103D10000C94601CDF92EF92FF920F931F93CF934E
:103D2000DF939091D803992309F464C095E0899FAB
:103D3000F0011124E552FC4FC081D181219702810D
:103D400013810C0F1D1FCE010E94631ED82E8823E5
:103D500021F060E0CE010E94761EBE0184E00E9448
:103D6000471DB80186E00E94471D9AE0E92EF12C1C
:103D700040E86FE180E80E94A61C40E86FE180EA1D
:103D80000E94A61C4AE06CE180EA0E94A61C48E062
:103D90006FE180E80E94A61C04E610E08CE10E941E
:103DA000241D8A70B1F40115110551F448E06FE14A
:103DB00080EA0E94A61C81E0E81AF108C9F61AC040
:103DC000015011096AE070E080E090E00E942E222C
:103DD000E5CF012B59F3EF2869F0DD2059F06D2D67
:103DE000CE01DF91CF911F910F91FF90EF90DF9067
:103DF0000C94761EDF91CF911F910F91FF90EF9061
:103E0000DF900895CF92DF92EF92FF920F931F936E
:103E1000CF93DF937C01EB014130510579F4CB0165
:103E20000E94631E682FC701DF91CF911F910F91F0
:103E3000FF90EF90DF90CF900C94761E6A01C60E33
:103E4000D71E86010150110980E10E94471DB7016C
:103E500084E10E94471DC115D84030F4011588E067
:103E6000180710F00F5F1740B80182E10E94471D4C
:103E700040E16FE180EA0E94A61C40E26FE180E829
:103E80000E94A61C6FE180E00E94811C85FF07C094
:103E900061E070E080E090E00E942E22F3CFDF919D
:103EA000CF911F910F91FF90EF90DF90CF900895E9
:103EB0000F931F93CF93DF93EB01E5E0E89FD001D1
:103EC0001124A552BC4F4F3FC9F0E49FF0011124CB
:103ED000E552FC4F02C0E3EDF3E060817181620FB7
:103EE000731F8D919C91A8018C0F9D1F0E94021F32
:103EF000DF91CF911F910F910C94631DE091D3033B
:103F0000F091D403E20FF31FE11588E0F80718F3EE
:103F1000BF016F5F7740E5CFCF93DF93EB01682F51
:103F200084ED0E94341DBE0186ED0E94471DCFE046
:103F3000D0E08AEE0E94241D80FF08C061E070E09E
:103F400080E090E00E942E22219799F7DF91CF9197
:103F500008950F931F93CF93DF93EC011092D40336
:103F60001092D3031092D6031092D5030E94C02062
:103F700061E088E00E94CC220E94601C61E08BE03E
:103F80000E94CC2261E08DE00E94CC2260E08CE0B7
:103F90000E94CC2260E08BE00E94052360E08DE06F
:103FA0000E94052380E58CBD8DB581608DBD4FEFEE
:103FB00060E08FEF0E94A61C62E070E080E090E07D
:103FC0000E942E2262E370E080E090E00E942E22A8
:103FD0001092DA031092D90300E110E06DE180E065
:103FE0000E94811C811104C00150110909F06FC0A9
:103FF00060E070E088E00E94471D60E070E08CE0C7
:104000000E94471D6FEF77E08AE00E94471D61EB39
:1040100088E30E94341D6FE370E388E20E94471D2D
:1040200069EF77EF80E30E94471D6DE070E080EC60
:104030000E94471D42E362EC80E80E94A61C62E1F8
:104040007CE086EC0E94471D62E184EC0E94341DF6
:104050006CED75E08AEC0E94471D688184EE0E9439
:10406000341D698185EE0E94341D6A8182EE0E94B2
:10407000341D6B8183EE0E94341D6C8180EE0E94A2
:10408000341D6D8181EE0E94341D60E071E080E19D
:104090000E948C1F8FE10E94021D40EC6BE180E8C2
:1040A0000E94A61C44E06FE180E80E94A61C66E71F
:1040B00074E084E10E948C1F82E70E94241D8F3FE0
:1040C00019F41092D8030AC08093D80307C06AE09D
:1040D00070E080E090E00E942E2280CFDF91CF91AF
:1040E0001F910F9108950F931F93CF93DF93EC01CE
:1040F000862FBA01A9010E94E81D8C010150110907
:104100000E94581C8AE38EBD0DB407FEFDCF20E04F
:1041100030E020173107C0F41EBC0DB407FEFDCF00
:104120008EB590E0982F88271EBC0DB407FEFDCFFA
:104130004EB5840F911DC80FD91FC817D90708F4B1
:1041400021962E5F3F4FE5CF2017310771F41EBC3B
:104150000DB407FEFDCF8EB590E0982F8827C80FCD
:10416000D91FC817D90708F421960E94601CCE01F8
:10417000DF91CF911F910F9108958091D8030895F9
:10418000EBEDF3E089E091E0DF019C011D9221500D
:104190003040E1F781E098E0918380830895DF92D9
:1041A000EF92FF920F931F93CF93DF938C010097B1
:1041B00011F480E08EC04091DB035091DC0341504C
:1041C000584E80E098E1EBEDF3E0E12CC0E0D0E068
:1041D00025E0D22EF480FF2041F0DF9CD001112495
:1041E000A552BC4F2D913C9101C09A016081718113
:1041F000261B370B62817381261B370B2017310773
:1042000039F485E0E89EE0011124C552DC4F48C036
:104210000217130748F42817390730F4DE9CE00131
:104220001124C552DC4FC901F11007C02097C1F518
:10423000CBEDD3E085E0D82E1EC0DF9CF001112429
:10424000E552FC4FEF2CC6CFEA80FB808881998134
:10425000E80EF91ED29EE0011124C552DC4F6881A0
:104260007981E616F70639F04A815B81C7010E9421
:10427000021FF982E8822C812111E6CF8091DB03B5
:104280009091DC0328813981821B930B2A813B8129
:10429000821B930B8150984E8017910708F489CFA9
:1042A000E0EEF3E081E022813381232B29F0359683
:1042B0008F5F8533C1F77DCF2A813B81488159814A
:1042C000240F351F31832083138302839C819483C1
:1042D0008C83DF91CF911F910F91FF90EF90DF9032
:1042E00008958823F9F0EBEDF3E025E0948198132D
:1042F00011C095E0899FD0011124A552BC4F14969E
:104300008C911497848313961C921E921297149684
:104310001C920895992331F0299FF0011124E55250
:10432000FC4FE4CF089595E0899FF0011124E552F8
:10433000FC4F80819181860F971F918380838281BA
:104340009381861B970B93838283089595E0899FC1
:10435000F0011124E552FC4F80819181860F971F57
:10436000918380835383428308951F920F920FB6E7
:104370000F9211242F933F938F939F93AF93BF93EB
:104380008091E5049091E604A091E704B091E804DF
:104390003091E40423E0230F2D3720F40196A11D72
:1043A000B11D05C026E8230F0296A11DB11D209363
:1043B000E4048093E5049093E604A093E704B093AB
:1043C000E8048091E9049091EA04A091EB04B09193
:1043D000EC040196A11DB11D8093E9049093EA04B9
:1043E000A093EB04B093EC04BF91AF919F918F9198
:1043F0003F912F910F900FBE0F901F9018952FB7E0
:10440000F8946091E5047091E6048091E70490913E
:10441000E8042FBF08953FB7F8948091E904909184
:10442000EA04A091EB04B091EC0426B5A89B05C06A
:104430002F3F19F00196A11DB11D3FBF6627782FB0
:10444000892F9A2F620F711D811D911D42E0660F09
:10445000771F881F991F4A95D1F708958F929F92D1
:10446000AF92BF92CF92DF92EF92FF926B017C01ED
:104470000E940B224B015C01C114D104E104F10440
:10448000F1F00E9477250E940B22681979098A09A8
:104490009B09683E73408105910570F321E0C21AC3
:1044A000D108E108F10888EE880E83E0981EA11C6F
:1044B000B11CC114D104E104F10429F7DDCFFF9050
:1044C000EF90DF90CF90BF90AF909F908F90089526
:1044D000789484B5826084BD84B5816084BD85B5DF
:1044E000826085BD85B5816085BDEEE6F0E08081A6
:1044F00081608083E1E8F0E01082808182608083C7
:10450000808181608083E0E8F0E080818160808349
:10451000E1EBF0E0808184608083E0EBF0E080817B
:1045200081608083EAE7F0E080818460808380811D
:1045300082608083808181608083808180688083C5
:104540001092C1000895833081F028F4813099F0F1
:104550008230A1F008958730A9F08830B9F0843016
:10456000D1F4809180008F7D03C0809180008F778F
:1045700080938000089584B58F7702C084B58F7DC5
:1045800084BD08958091B0008F7703C08091B00002
:104590008F7D8093B0000895CF93DF9390E0FC016E
:1045A000E457FF4F2491FC01E056FF4F849188238C
:1045B00049F190E0880F991FFC01E254FF4FA5914B
:1045C000B4918C549F4FFC01C591D4919FB7611158
:1045D00008C0F8948C91209582238C938881822343
:1045E0000AC0623051F4F8948C91322F30958323B5
:1045F0008C938881822B888304C0F8948C91822BC1
:104600008C939FBFDF91CF9108950F931F93CF930A
:10461000DF931F92CDB7DEB7282F30E0F901E858BD
:10462000FF4F8491F901E457FF4F1491F901E056CF
:10463000FF4F04910023C9F0882321F069830E9471
:10464000A3226981E02FF0E0EE0FFF1FEC54FF4F33
:10465000A591B4919FB7F8948C91611103C0109506
:10466000812301C0812B8C939FBF0F90DF91CF914D
:104670001F910F9108951F920F920FB60F92112460
:104680002F938F939F93EF93FF93E091FD04F0910D
:10469000FE048081E0910305F091040582FD12C0C3
:1046A0009081809106058F5F8F7320910705821797
:1046B00051F0E0910605F0E0E351FB4F958F8093B8
:1046C000060501C08081FF91EF919F918F912F91FD
:1046D0000F900FBE0F901F9018951F920F920FB65C
:1046E0000F9211242F933F934F935F936F937F9378
:1046F0008F939F93AF93BF93EF93FF938DEE94E0CF
:104700000E94B325FF91EF91BF91AF919F918F913F
:104710007F916F915F914F913F912F910F900FBEBD
:104720000F901F9018958DEE94E00E94782521E05F
:10473000892B09F420E0822F08951092F004109242
:10474000EF0488EE93E0A0E0B0E08093F104909352
:10475000F204A093F304B093F40482E792E0909300
:10476000EE048093ED0485EC90E09093FA0480933E
:10477000F90484EC90E09093FC048093FB0480ECBB
:1047800090E09093FE048093FD0481EC90E0909380
:1047900000058093FF0482EC90E0909302058093E3
:1047A000010586EC90E09093040580930305109238
:1047B0000605109207051092080510920905089544
:1047C000AF92BF92CF92DF92EF92FF920F931F931F
:1047D000CF93DF936C017B01C0E0D0E000E010E0FC
:1047E000F601EC0FFD1F4AE050E06281C7010E9414
:1047F00008255C016EE2C7010E948F248A0D9B1D73
:10480000080F191F2196C330D10551F74AE050E037
:10481000F6016581C7010E940825800F911FDF9175
:10482000CF911F910F91FF90EF90DF90CF90BF90AD
:10483000AF9008952DE532E0FC0131832083128290
:1048400013821482158208950F93FC018DE592E086
:104850009183808362834383248305830F9108952A
:104860008DE592E090938B0580938A0510928C05DC
:1048700010928D0510928E0510928F05089508955F
:104880000E9468220E943F240E942702C5EAD5E2C6
:104890000E9401032097E1F30E94A525F9CFCF9252
:1048A000DF92EF92FF920F931F93CF93DF937C01E0
:1048B0006A01EB0100E010E00C151D0571F0699133
:1048C000D701ED91FC910190F081E02DC701099590
:1048D000892B19F00F5F1F4FEFCFC801DF91CF91E8
:1048E0001F910F91FF90EF90DF90CF900895611589
:1048F000710581F0DB010D900020E9F7AD01415019
:104900005109461B570BDC01ED91FC910280F381AC
:10491000E02D099480E090E008950C947724DC0168
:10492000ED91FC910190F081E02D09946FE572E02A
:104930000C9477240F931F93CF93DF93EC010E9485
:1049400077248C01CE010E949624800F911FDF9165
:10495000CF911F910F9108958F929F92AF92BF9226
:10496000DF92EF92FF920F931F93CF93DF93CDB718
:10497000DEB7A1970FB6F894DEBF0FBECDBF7C01A6
:10498000F42FD52ECB0119A2223008F42AE08E0193
:104990000F5D1F4F822E912CA12CB12C6F2F7D2DDE
:1049A000A50194010E945B26F22FD32ECA0101506B
:1049B00011096A3014F4E0E301C0E7E3E60FD8011F
:1049C000EC93232B242B252B49F7B801C7010E9418
:1049D0007724A1960FB6F894DEBF0FBECDBFDF914E
:1049E000CF911F910F91FF90EF90DF90BF90AF900C
:1049F0009F908F9008952115310541F4DC01ED91D0
:104A0000FC910190F081E02D642F09940C94AC246A
:104A10009A01462F50E060E070E00C94FB240F9365
:104A20001F93CF93DF93EC019A01462F50E060E093
:104A300070E00E94FB248C01CE010E949624800F1E
:104A4000911FDF91CF911F910F9108950F931F93A5
:104A5000CF93DF93EC010E94FF21688779878A87D3
:104A60009B87E881F9810680F781E02DCE010995C9
:104A700097FF15C00E94FF21088519852A853B856F
:104A8000601B710B820B930B0C811D812E813F816A
:104A9000601771078207930720F38FEF9FEFDF9175
:104AA000CF911F910F910895CF92DF92EF92FF92D5
:104AB0000F931F93CF93DF937C016A01EB0100E01A
:104AC00010E00C151D0549F0C7010E94262597FD31
:104AD00004C089930F5F1F4FF4CFC801DF91CF91BE
:104AE0001F910F91FF90EF90DF90CF900895089560
:104AF000FC01818D228D90E0805C9F4F821B91098B
:104B00008F7399270895FC01918D828D981731F04C
:104B1000828DE80FF11D858D90E008958FEF9FEF56
:104B20000895FC01918D828D981761F0828DDF01CF
:104B3000A80FB11D5D968C91928D9F5F9F73928F90
:104B400090E008958FEF9FEF089583E993E2892B1A
:104B500049F080E090E0892B29F00E949323811195
:104B60000C9400000895FC01848DDF01A80FB11D95
:104B7000A35ABF4F2C91848D90E001968F73992793
:104B8000848FA689B7892C93A089B1898C91806480
:104B90008C93938D848D981306C00288F389E02D41
:104BA00080818F7D80830895CF93DF93EC01888D82
:104BB0008823C9F0EA89FB89808185FD05C0A88921
:104BC000B9898C9186FD0FC00FB607FCF5CF8081A7
:104BD00085FFF2CFA889B9898C9185FFEDCFCE01F1
:104BE0000E94B325E7CFDF91CF910895CF92DF9256
:104BF000FF920F931F93CF93DF931F92CDB7DEB732
:104C00006C0181E0D60158968C9358975B969C91E5
:104C10005B975C968C915C97981307C05096ED91CA
:104C2000FC915197808185FD2EC0F601038D10E027
:104C30000F5F1F4F0F731127F02EF601848DF812AE
:104C400011C00FB607FCF9CFD6015096ED91FC913B
:104C50005197808185FFF1CFC60169830E94B325FA
:104C60006981EBCF838DE80FF11DE35AFF4F60831D
:104C7000D6015B960C935B975296ED91FC915397FE
:104C8000808180620CC0D6015696ED91FC915797B9
:104C900060835096ED91FC91519780818064808370
:104CA00081E090E00F90DF91CF911F910F91FF90E5
:104CB000DF90CF900895A1E21A2EAA1BBB1BFD0125
:104CC0000DC0AA1FBB1FEE1FFF1FA217B307E407EB
:104CD000F50720F0A21BB30BE40BF50B661F771F43
:104CE000881F991F1A9469F7609570958095909523
:104CF0009B01AC01BD01CF010895EE0FFF1F059090
:104D0000F491E02D0994FB01DC0102C001900D92A9
:104D100041505040D8F70895DC0101C06D934150D7
:0A4D20005040E0F70895F894FFCF2B
:104D2A000000BD06800001000000010000FF000134
:104D3A00020304054D63703235313520636F6E66A8
:104D4A00696775726520627573207375636365732D
:104D5A0066756C6C79004D63703235313520636F3E
:104D6A006E66696775726520696E746572727570B0
:104D7A0074732073756363657366756C6C79004D23
:104D8A0063703235313520636F6E66696775726597
:104D9A002072782062756666657220737563636532
:104DAA007366756C6C790041626F72742077616901
:104DBA0074696E672E204D61782E20776169746957
:104DCA006E672074696D6520726561636865642E1B
:104DDA00004D63703235313520737769746368200A
:104DEA00746F206D6F646520004D63703235313504
:104DFA002072657365742073756363657366756C79
:104E0A006C7920616E642073776974636820646FBB
:104E1A00206D6F64652000565758595A5B5C5D4691
:104E2A004748494A4B4C4D363738393A3B3C3D00A6
:104E3A000000008A089E08E0079A062B076509CC3D
:104E4A00065807BB0848097706B60688066D0600A5
:104E5A00000000650E970FC00F7B0ECA0FF30E9865
:104E6A000ED40EFF0E4E102411B00FEE0F4E031D7E
:104E7A0010C60EFFFFFFFFFFFF00000000E0230D3A
:104E8A000A006E616E00696E66006F766600000049
:0E4E9A000000F6254F24782591258325D42588
:107800000C94343C0C94513C0C94513C0C94513CE1
:107810000C94513C0C94513C0C94513C0C94513CB4
:107820000C94513C0C94513C0C94513C0C94513CA4
:107830000C94513C0C94513C0C94513C0C94513C94
:107840000C94513C0C94513C0C94513C0C94513C84
:107850000C94513C0C94513C0C94513C0C94513C74
:107860000C94513C0C94513C11241FBECFEFD8E036
:10787000DEBFCDBF11E0A0E0B1E0ECE9FFE702C060
:1078800005900D92A230B107D9F712E0A2E0B1E065
:1078900001C01D92AD30B107E1F70E942D3D0C945F
:1078A000CC3F0C94003C982F959595959595959582
:1078B000905D8F708A307CF0282F295A8091C0000B
:1078C00085FFFCCF9093C6008091C00085FFFCCF60
:1078D0002093C6000895282F205DF0CF982F809127
:1078E000C00085FFFCCF9093C6000895EF92FF92F1
:1078F0000F931F93EE24FF2487018091C00087FD22
:1079000017C00894E11CF11C011D111D81E4E8164B
:1079100082E4F8068FE0080780E0180770F3E09132
:107920000401F091050109958091C00087FFE9CF1E
:107930008091C6001F910F91FF90EF9008950E94D3
:10794000763C982F8091C00085FFFCCF9093C600B5
:1079500091362CF490330CF09053892F089597555D
:10796000892F08951F930E949F3C182F0E949F3CCF
:107970001295107F810F1F9108951F93182F882350
:1079800021F00E94763C1150E1F71F9108951F935A
:10799000182F0E94763C803249F0809103018F5F5E
:1079A000809303018530C1F01F9108958091C0003C
:1079B00085FFFCCF84E18093C6008091C00085FFE5
:1079C000FCCF1093C6008091C00085FFFCCF80E102
:1079D0008093C6001F910895E0910401F091050184
:1079E00009951F9108950E94763C803241F0809164
:1079F00003018F5F80930301853081F008958091AA
:107A0000C00085FFFCCF84E18093C6008091C00058
:107A100085FFFCCF80E18093C6000895E0910401CA
:107A2000F09105010995089540E951E08823A1F0FE
:107A30002D9A28EE33E0FA013197F1F721503040CA
:107A4000D1F72D9828EE33E0FA013197F1F7215064
:107A50003040D1F7815061F708953F924F925F9285
:107A60006F927F928F929F92AF92BF92CF92DF924E
:107A7000EF92FF920F931F93CF93DF93000080E16B
:107A80008093C4001092C50088E18093C10086E015
:107A90008093C2005098589A259A81E00E94143D24
:107AA00024E1F22E9EE1E92E85E9D82E0FE0C02ECA
:107AB00010E1B12EAA24A394B1E49B2EA6E58A2E50
:107AC000F2E57F2EE0E26E2E79E4572E63E5462E36
:107AD00050E5352E0E94763C8033B1F18133B9F107
:107AE000803409F46FC0813409F476C0823409F41B
:107AF00085C0853409F488C0803531F1823521F1A3
:107B0000813511F1853509F485C0863509F48DC0BC
:107B1000843609F496C0843709F403C1853709F423
:107B200072C1863709F466C0809103018F5F80932C
:107B30000301853079F6E0910401F0910501099582
:107B40000E94763C803351F60E94F33CC3CF0E94E2
:107B5000763C803249F78091C00085FFFCCFF092DF
:107B6000C6008091C00085FFFCCF9092C600809136
:107B7000C00085FFFCCF8092C6008091C00085FFC9
:107B8000FCCF7092C6008091C00085FFFCCF609250
:107B9000C6008091C00085FFFCCF5092C600809146
:107BA000C00085FFFCCF4092C6008091C00085FFD9
:107BB000FCCF3092C6008091C00085FFFCCFB09210
:107BC000C60088CF0E94763C863808F4BDCF0E945C
:107BD000763C0E94F33C7ECF0E94763C803809F4CC
:107BE0009CC0813809F40BC1823809F43CC1883942
:107BF00009F48FC080E00E94C73C6CCF84E10E94F2
:107C0000BD3C0E94F33C66CF85E00E94BD3C0E94D3
:107C1000F33C60CF0E94763C809306010E94763C44
:107C2000809307010E94F33C55CF0E94763C80333D
:107C300009F41DC183E00E94BD3C80E00E94C73C66
:107C400049CF0E94763C809309020E94763C809343
:107C5000080280910C028E7F80930C020E94763C79
:107C6000853409F415C18091080290910902892B8D
:107C700089F000E010E00E94763CF801E85FFE4FDA
:107C800080830F5F1F4F80910802909109020817AF
:107C9000190788F30E94763C803209F045CF809125
:107CA0000C0280FF01C16091060170910701660F0F
:107CB000771F7093070160930601A0910802B091AD
:107CC00009021097C9F0E8E0F1E09B01AD014E0F09
:107CD0005F1FF999FECF32BD21BD819180BDFA9A17
:107CE000F99A2F5F3F4FE417F50799F76A0F7B1F4B
:107CF00070930701609306018091C00085FFFCCF5F
:107D0000F092C6008091C00085FFFCCFB092C60003
:107D1000E1CE83E00E94C73CDDCE82E00E94C73CFA
:107D2000D9CE0E94763C809309020E94763C8093D3
:107D300008028091060190910701880F991F909386
:107D40000701809306010E94763C853409F4A6C0A1
:107D500080910C028E7F80930C020E94763C8032D0
:107D600009F0B8CE8091C00085FFFCCFF092C6002C
:107D7000609108027091090261157105B9F140E046
:107D800050E080910C02A82FA170B82FB27011C0E2
:107D9000BB2309F45CC0E0910601F0910701319624
:107DA000F0930701E09306014F5F5F4F46175707B7
:107DB000E8F4AA2369F3F999FECF209106013091E6
:107DC000070132BD21BDF89A90B58091C00085FFB2
:107DD000FCCF9093C6002F5F3F4F30930701209355
:107DE00006014F5F5F4F4617570718F38091C00099
:107DF00085FDE5CE8091C00085FFF8CFE0CE81E023
:107E00000E94C73C67CE0E94763C803209F08CCE3F
:107E10008091C00085FFFCCFF092C6008091C00029
:107E200085FFFCCFE092C6008091C00085FFFCCFAB
:107E3000D092C6008091C00085FFFCCFC092C600E2
:107E40008091C00085FFFCCFB092C60043CEE09188
:107E50000601F091070194918091C00085FFFCCF4D
:107E60009093C6009CCF80E10E94C73C33CE0E9415
:107E7000763C0E94763C182F0E94763C112309F430
:107E800083C0113009F484C08FE00E94C73C22CE29
:107E900080910C02816080930C02E5CE80910C02EF
:107EA000816080930C0259CF809107018823880F4D
:107EB000880B8A2180930B02809106019091070123
:107EC000880F991F90930701809306018091080203
:107ED00080FF09C080910802909109020196909359
:107EE000090280930802F894F999FECF1127E091D6
:107EF0000601F0910701C8E0D1E08091080290915D
:107F00000902103091F40091570001700130D9F34B
:107F100003E000935700E89500915700017001308D
:107F2000D9F301E100935700E89509901990009169
:107F3000570001700130D9F301E000935700E89534
:107F40001395103498F011270091570001700130FB
:107F5000D9F305E000935700E895009157000170B0
:107F60000130D9F301E100935700E895329602976A
:107F700009F0C7CF103011F00296E5CF112480919F
:107F8000C00085FFB9CEBCCE8EE10E94C73CA2CD19
:0C7F900085E90E94C73C9ECDF894FFCF0D
:027F9C00800063
:040000030000780081
:00000001FF